:020000040800F2
:1000000000500020395700083557000835570008C0
:100010003557000835570008355700080000000024
:10002000000000000000000000000000355700083C
:100030003557000800000000355700083557000804
:100040003557000835570008355700083557000860
:100050003557000835570008355700083557000850
:100060003557000835570008355700083557000840
:100070003557000835570008355700083557000830
:100080003557000835570008355700083557000820
:100090003557000835570008355700083557000810
:1000A0003557000835570008355700083557000800
:1000B000E90300089B0400083D05000835570008C7
:1000C00035570008355700083557000835570008E0
:1000D00035570008355700083557000835570008D0
:0C00E00035570008355700083557000858
:1000EC0080B400AF054B1B78DBB20133DAB2034BA3
:1000FC001A7000BFBD4680BC704700BFF5000020E1
:10010C0080B400AF054B1B78DBB20133DAB2034B82
:10011C001A7000BFBD4680BC704700BFF4000020C1
:10012C0080B400AF054B1B78DBB20133DAB2034B62
:10013C001A7000BFBD4680BC704700BFF60000209F
:10014C0080B483B000AF0346FB71FB79DB03064A36
:10015C0082FB03125211DB17D31A9BB218460C37D1
:10016C00BD4680BC704700BF1F85EB5180B500AF0A
:10017C0000F03BF800F00EF8044800F08AFB04484D
:10018C0001F028FC00F0C7F800BFFDE77857000825
:10019C00C857000880B582B000AF1B233B71002309
:1001AC007B710023BB710023FB713B1D184604F0CF
:1001BC006FF919233B713B1D184604F069F91C2398
:1001CC003B713B1D184604F063F91D233B713B1D2D
:1001DC00184604F05DF91E233B713B1D184604F0D4
:1001EC0057F900BF0837BD4680BD80B582B000AF5F
:1001FC0004F0ACFE4FF4803004F0D6FE04F002FFA5
:10020C000346FB71FB79012B29D1022004F0F4F990
:10021C00102004F025FA002004F0A2FF4FF48060B7
:10022C0004F0BAFF002004F0D3FF4FF4E0114FF4B8
:10023C00803004F03DFF012004F058FF00BF39204E
:10024C0005F000FA0346002BF9D0022004F05EFF03
:10025C0000BF04F077FF0346082BFAD100E0FEE75D
:10026C000837BD4680BD80B584B000AF01210120A8
:10027C0005F05EF900237B810023FB804FF6FF73B2
:10028C003B8141F63F73BB803B1D19464FF08040CC
:10029C0002F038FB01214FF0804002F0F8FE00BF65
:1002AC001037BD4680BD80B500AF4FF4005104201F
:1002BC0001F038FC4FF4C041052001F033FC00BFC5
:1002CC0080BD80B582B000AF0A20FFF739FF03462E
:1002DC00FB80FB881946042001F024FCFB8819469E
:1002EC00052001F01FFC00BF0837BD4680BD80B55E
:1002FC0000AF062001F090FC072001F08DFC4FF4BC
:10030C00C041062001F00EFC4FF4C041072001F063
:10031C0009FC00BF80BD80B500AF0021042001F0B6
:10032C00E9FC0121052001F0E5FC0221062001F089
:10033C00E1FC00BF80BD00BF80B500AF01212648A5
:10034C0003F07EFE0346002B07D00121002001F0B4
:10035C001EFD0121204803F09CFE02211E4803F0E3
:10036C006FFE0346002B07D00221002001F00FFD89
:10037C000221194803F08DFE0421174803F060FE9A
:10038C000346002B07D00421002001F000FD0421BE
:10039C00114803F07EFE08210F4803F051FE03467E
:1003AC00002B07D00821002001F0F1FC08210A489D
:1003BC0003F06FFE1021084803F042FE0346002BA9
:1003CC0007D01021002001F0E2FC1021024803F0BC
:1003DC0060FE00BF80BD00BF002C014080B500AFA7
:1003EC0001214FF0804003F02BFE0346002B08D078
:1003FC000121012001F0CBFC01214FF0804003F0E2
:10040C0048FE02214FF0804003F01AFE0346002BF9
:10041C0008D00221012001F0BAFC02214FF08040EB
:10042C0003F037FE04214FF0804003F009FE034631
:10043C00002B08D00421012001F0A9FC04214FF06D
:10044C00804003F026FE08214FF0804003F0F8FDB9
:10045C000346002B08D00821012001F098FC08214C
:10046C004FF0804003F015FE10214FF0804003F058
:10047C00E7FD0346002B08D01021012001F087FC7A
:10048C0010214FF0804003F004FE00BF80BD80B50A
:10049C0000AF0121254803F0D3FD0346002B07D004
:1004AC000121022001F073FC0121204803F0F1FD31
:1004BC0002211E4803F0C4FD0346002B07D0022185
:1004CC00022001F064FC0221184803F0E2FD042133
:1004DC00164803F0B5FD0346002B07D0042102207B
:1004EC0001F055FC0421114803F0D3FD08210F48FD
:1004FC0003F0A6FD0346002B07D00821022001F0D3
:10050C0046FC0821094803F0C4FD1021074803F0FC
:10051C0097FD0346002B07D01021022001F037FC79
:10052C001021024803F0B5FD00BF80BD000400405F
:10053C0080B500AF0121264803F082FD0346002B55
:10054C0007D00121032001F022FC0121204803F0F7
:10055C00A0FD02211E4803F073FD0346002B07D0BB
:10056C000221032001F013FC0221194803F091FD34
:10057C000421174803F064FD0346002B07D0042127
:10058C00032001F004FC0421114803F082FD082132
:10059C000F4803F055FD0346002B07D0082103201C
:1005AC0001F0F5FB08210A4803F073FD10210848FF
:1005BC0003F046FD0346002B07D01021032001F069
:1005CC00E6FB1021024803F064FD00BF80BD00BFB4
:1005DC000008004080B584B000AF78600B467B808B
:1005EC007B681B78002B13D07B681B78012B0DD0FC
:1005FC007B681B78022B07D07B681B78032B01D1FF
:10060C003D4B06E0002304E03C4B02E03C4B00E099
:10061C003C4BFB607B883B817B681B7ABB727B68A5
:10062C001B79012B08D17B68DB79012B01D11023BD
:10063C0000E01423FB720FE07B68DB79012B02D105
:10064C004823FB7208E07B68DB79022B02D128235C
:10065C00FB7201E00423FB7207F108031946F868EA
:10066C0001F0CCFD7B681B79012B40D17B689B7919
:10067C00012B1ED17B681B78002B13D07B681B7859
:10068C00012B0DD07B681B78022B07D07B681B7865
:10069C00032B01D1184B06E0002304E0174B02E0BA
:1006AC00174B00E0174B7A881146184601F0BFFE35
:1006BC001DE07B681B78002B13D07B681B78012B0B
:1006CC000DD07B681B78022B07D07B681B78032B23
:1006DC0001D1094B06E0002304E0084B02E0084B73
:1006EC0000E0084B7A881146184601F0AEFE00BFB8
:1006FC001037BD4680BD00BF001401400010014002
:10070C00000C01400008014080B584B000AF786057
:10071C000B467B807B681B78002B13D07B681B7887
:10072C00012B0DD07B681B78022B07D07B681B78C4
:10073C00032B01D10D4B06E0002304E00C4B02E02F
:10074C000C4B00E00C4BFB607B883B817B681B7A7D
:10075C00BB720023FB7207F108031946F86801F01D
:10076C004DFD00BF1037BD4680BD00BF00140140D9
:10077C0000100140000C01400008014080B584B01D
:10078C0000AF78600B467B807B681B78002B13D006
:10079C007B681B78012B0DD07B681B78022B07D054
:1007AC007B681B78032B01D10D4B06E0002304E082
:1007BC000C4B02E00C4B00E00C4BFB607B883B814C
:1007CC007B681B7ABB721823FB7207F1080319466E
:1007DC00F86801F013FD00BF1037BD4680BD00BFA7
:1007EC000014014000100140000C014000080140C1
:1007FC0080B584B000AF78607B685B781A460123C3
:10080C009340FB817B681B78032B3CD801A252F8E8
:10081C0023F000BF310800083B0800084508000819
:10082C004F0800080121042004F064FE0EE00121B1
:10083C00082004F05FFE09E00121102004F05AFEAC
:10084C0004E00121202004F055FE00BF7B689B785A
:10085C00022B12D0022B18DC002B02D0012B06D05D
:10086C0013E0FB8919467868FFF7B4FE0EE0FB89AC
:10087C0019467868FFF748FF08E0FB891946786845
:10088C00FFF77CFF02E000BF00E000BF1037BD4661
:10089C0080BD80B584B000AF78607B68002B1BD026
:1008AC000023FB810CE07B681968FA891346DB0096
:1008BC0013440B441846FFF79BFFFB890133FB8164
:1008CC007B689B88FA899A42EDD3054A7B68136052
:1008DC00044B01221A7000E000BF1037BD4680BDEA
:1008EC00FC000020F800002080B584B000AF034667
:1008FC000A46FB711346BB71164B1B78002B21D09B
:10090C00FB799AB2144B1B689B889A421CD2124BEF
:10091C001B681968FA791346DB0013440B445B79A6
:10092C00002B13D00C4B1B681968FA791346DB00AB
:10093C0013440B44FB60FB68BA791A71F868FFF733
:10094C0057FF04E000BF02E000BF00E000BF10371B
:10095C00BD4680BDF8000020FC00002080B582B0B0
:10096C0000AF154B1B78002B22D00023FB8018E026
:10097C00124B1B681968FA881346DB0013440B44AE
:10098C005B79002B0AD10D4B1B681968FA8813464A
:10099C00DB0013440B441846FFF72AFFFB88013396
:1009AC00FB80064B1B689B88FA889A42E0D300E0D8
:1009BC0000BF0837BD4680BDF8000020FC000020B9
:1009CC0080B483B000AF78607B68002B10D07B685C
:1009DC0040F2D2421A807B6851225A807B680122F5
:1009EC001A717B6800225A717B6800229A7100E0B0
:1009FC0000BF0C37BD4680BC704780B584B000AFDB
:100A0C0003460A46FB711346BB71164B1B78002B31
:100A1C001FD0FB799AB2144B1B689B889A421AD24E
:100A2C00114B1B681968FA791346DB0013440B440D
:100A3C00DB78002B11D0FA791346DB0013440B4AF8
:100A4C001344FB60FB68BA799A70F868FFF7D0FE24
:100A5C0004E000BF02E000BF00E000BF1037BD465D
:100A6C0080BD00BFF8000020FC000020805700086B
:100A7C0080B487B000AF78600023FB757B68002BD7
:100A8C0002D10123FB755DE00023BB752BE07B6875
:100A9C001968BA7D13469B0013449B000B443B61C1
:100AAC003B691B78BA7D9A4202D00123FB751FE08B
:100ABC003B695A787B685B7A9A4202D30123FB75B7
:100ACC0016E03B699B88002B02D10123FB750FE0DC
:100ADC003B69DB88B3F5004F02D90123FB7507E0B6
:100AEC00BB7D0133BB757B681B7ABA7D9A42CED332
:100AFC00FB7D002B26D100237B751EE07B685A689A
:100B0C007B7D1B011344FB60FB681B787A7D9A424A
:100B1C0002D00123FB7515E0FB689B88002B02D1EA
:100B2C000123FB750EE0FB685B88002B02D10123CF
:100B3C00FB7507E07B7D01337B757B685B7A7A7D87
:100B4C009A42DBD3FB7D18461C37BD4680BC7047F0
:100B5C0080B485B000AF0346FB710023FB60FB79CA
:100B6C00072B07D8FA7913469B0013449B00044AC1
:100B7C001344FB60FB6818461437BD4680BC7047B5
:100B8C000000002080B485B000AF0346FB71002349
:100B9C00FB60FB79032B04D8FB791B01044A13443B
:100BAC00FB60FB6818461437BD4680BC704700BF1D
:100BBC00A000002080B588B000AF03463960FB71FF
:100BCC000023FB77FB79032B02D83B68002B02D167
:100BDC000123FB7755E0FB79002B05D101214FF464
:100BEC00006004F087FC16E0FB79012B04D1012195
:100BFC00012004F09DFC0EE0FB79022B04D10121B5
:100C0C00022004F095FC06E0FB79032B03D10121B3
:100C1C00042004F08DFCFB79002B11D0FB79012B07
:100C2C000BD0FB79022B06D0FB79032B01D1174B90
:100C3C0007E0002305E0164B03E04FF0804300E093
:100C4C00144BBB613B685B88013B9BB23B823B68AE
:100C5C009B88013B9BB2BB8100237B820023FB81E1
:100C6C003B689B7A3B7507F10C031946B86901F098
:100C7C0049FE0121B86902F087FC0121B86902F034
:100C8C0006FAFB7F18462037BD4680BD00080040A1
:100C9C0000040040002C014080B584B000AF034636
:100CAC00FB710023FB73FB79032B02D90123FB732C
:100CBC0040E0FB79002B11D0FB79012B0BD0FB7999
:100CCC00022B06D0FB79032B01D11D4B07E000232F
:100CDC0005E01C4B03E04FF0804300E01A4BBB6077
:100CEC00BB68002B06D00021B86802F0D0F9B868B8
:100CFC0001F0F2FCFB79002B05D100214FF40060D0
:100D0C0004F0F8FB16E0FB79012B04D10021012043
:100D1C0004F00EFC0EE0FB79022B04D10021022022
:100D2C0004F006FC06E0FB79032B03D10021042020
:100D3C0004F0FEFBFB7B18461037BD4680BD00BFA0
:100D4C000008004000040040002C014080B58CB02D
:100D5C0000AF0346FB71002387F82F30FA79134656
:100D6C009B0013449B00674A1344BB62FB79072B1F
:100D7C0003D9012387F82F30BDE0BB6A5B7887F875
:100D8C002730FB7903F00303DBB2002B11D0FB7986
:100D9C0003F00303DBB2012B09D0FB7903F003034F
:100DAC00DBB2022B01D1082304E00C2302E0042364
:100DBC0000E00023BB8497F82730002B14D097F861
:100DCC002730012B0DD097F82730022B07D097F83E
:100DDC002730032B01D14C4B07E0002305E04B4B94
:100DEC0003E04FF0804300E0494B3B62BB6ADB8879
:100DFC001A46BB6A9B8802FB03F3DB0BFB83602365
:100E0C00BB810123FB8100233B82FB8B7B82BB6A72
:100E1C001B7A002B01D1002300E00223BB820023AC
:100E2C00FB82BB6A5B7A002B02D14FF4807300E02B
:100E3C0000233B8300237B83BB8C0C2B48D801A263
:100E4C0052F823F0850E0008DD0E0008DD0E0008B8
:100E5C00DD0E00089B0E0008DD0E0008DD0E0008FC
:100E6C00DD0E0008B10E0008DD0E0008DD0E0008D6
:100E7C00DD0E0008C70E000807F10C031946386A8E
:100E8C0001F0BCFD0821386A02F0FAFB24E007F1FE
:100E9C000C031946386A01F03DFE0821386A02F04D
:100EAC000AFC19E007F10C031946386A01F0BAFE86
:100EBC000821386A02F01CFC0EE007F10C031946FD
:100ECC00386A01F035FF0821386A02F02CFC03E087
:100EDC00012387F82F3000BF97F82F30002B0AD151
:100EEC00BB6A00229A74BB6A5B78002B03D1012188
:100EFC00074802F0EBF897F82F3018463037BD460C
:100F0C0080BD00BF0000002000080040000400402D
:100F1C00002C014080B586B000AF03460A46FB7139
:100F2C001346BB800023FB75FB7903F00303DBB294
:100F3C00002B11D0FB7903F00303DBB2012B09D09A
:100F4C00FB7903F00303DBB2022B01D1082304E08D
:100F5C000C2302E0042300E00023BB82FA795649FB
:100F6C0013469B0013449B000B4401331B78002B4E
:100F7C0029D0FA79504913469B0013449B000B442B
:100F8C0001331B78012B1BD0FA794B4913469B007C
:100F9C0013449B000B4401331B78022B0ED0FA79BF
:100FAC00454913469B0013449B000B4401331B78AB
:100FBC00032B01D1414B07E0002305E0404B03E03C
:100FCC004FF0804300E03F4B3B61FB79072B03D88C
:100FDC00BB88B3F5004F02D90123FB7566E0FA79A3
:100FEC00354913469B0013449B000B4412331B786A
:100FFC00012B04D1FB791846FFF7A8FE56E0B988FF
:10100C00FA792D4813469B0013449B000344043388
:10101C001B8801FB03F3DB0BFB81BB8A0C2B35D844
:10102C0001A252F823F000BF6910000899100008C3
:10103C009910000899100008751000089910000804
:10104C0099100008991000088110000899100008E8
:10105C0099100008991000088D100008FB8919469A
:10106C00386902F0B5FE14E0FB891946386902F0C4
:10107C00BDFE0EE0FB891946386902F0C5FE08E09A
:10108C00FB891946386902F0CDFE02E00123FB759D
:10109C0000BFFB7D002B09D1FA79074913469B0051
:1010AC0013449B000B440633BA881A80FB7D184608
:1010BC001837BD4680BD00BF00000020000800406E
:1010CC0000040040002C014080B586B000AF034600
:1010DC00FB710B46BB8013467B800023FB75FB79B1
:1010EC00072B06D8BB88002B03D07B88B3F5004FA9
:1010FC0002D90123FB75C6E0FB7903F00303DBB2D5
:10110C00002B11D0FB7903F00303DBB2012B09D0C8
:10111C00FB7903F00303DBB2022B01D1082304E0BB
:10112C000C2302E0042300E00023BB82FA79584927
:10113C0013469B0013449B000B4401331B78002B7C
:10114C0029D0FA79524913469B0013449B000B4457
:10115C0001331B78012B1BD0FA794D4913469B00A8
:10116C0013449B000B4401331B78022B0ED0FA79ED
:10117C00474913469B0013449B000B4401331B78D7
:10118C00032B01D1434B07E0002305E0424B03E066
:10119C004FF0804300E0414B3B61BB88013B9BB26D
:1011AC001946386902F006FE7988FA7938481346F0
:1011BC009B0013449B00034404331B8801FB03F383
:1011CC00DB0BFB81BB8A0C2B34D801A252F823F029
:1011DC0011120008411200084112000841120008C7
:1011EC001D120008411200084112000841120008AB
:1011FC00291200084112000841120008411200088F
:10120C0035120008FB891946386902F0E1FD14E03B
:10121C00FB891946386902F0E9FD0EE0FB89194695
:10122C00386902F0F1FD08E0FB891946386902F0D3
:10123C00F9FD02E00123FB7500BFFB7D002B22D1E1
:10124C00FA79134913469B0013449B000B44043357
:10125C00BA881A80FA790E4913469B0013449B00F6
:10126C000B4406337A881A80FA79094913469B0095
:10127C0013449B000B4401331B78094A1B01134494
:10128C000233BA881A80FB7D18461837BD4680BDDC
:10129C00000000200008004000040040002C014029
:1012AC00A000002080B584B000AF0346FB71002382
:1012BC00FB73FB79072B02D90123FB73DCE0FB7971
:1012CC0003F00303DBB2002B11D0FB7903F0030313
:1012DC00DBB2012B09D0FB7903F00303DBB2022B49
:1012EC0001D1082304E00C2302E0042300E00023D6
:1012FC00BB81FA79634913469B0013449B000B4452
:10130C0001331B78002B29D0FA795E4913469B00D8
:10131C0013449B000B4401331B78012B1BD0FA792F
:10132C00584913469B0013449B000B4401331B7814
:10133C00022B0ED0FA79534913469B0013449B00A1
:10134C000B4401331B78032B01D14F4B07E00023D7
:10135C0005E04E4B03E04FF0804300E04C4BBB608C
:10136C00BB8900221946B86802F0A1FBBB890C2B83
:10137C0070D801A252F823F0B913000861140008C8
:10138C006114000861140008E313000861140008DC
:10139C0061140008611400080D14000861140008A1
:1013AC00611400086114000837140008FA793549F3
:1013BC0013469B0013449B000B4409331B78002BF2
:1013CC0004D15021B86802F06FF845E04021B868AC
:1013DC0002F06AF840E0FA792A4913469B0013445C
:1013EC009B000B4409331B78002B04D15021B868A7
:1013FC0002F075F830E04021B86802F070F82BE08C
:10140C00FA79204913469B0013449B000B44093383
:10141C001B78002B04D15021B86802F07DF81BE03A
:10142C004021B86802F078F816E0FA7915491346AD
:10143C009B0013449B000B4409331B78002B04D1F5
:10144C005021B86802F083F806E04021B86802F039
:10145C007EF801E0012310E0BB8901221946B8682F
:10146C0002F025FBFA79074913469B0013449B00B5
:10147C000B44123301221A70FB7B18461037BD4601
:10148C0080BD00BF000000200008004000040040A8
:10149C00002C014080B487B000AF0346FB71FB7990
:1014AC0003F00303DBB2002B11D0FB7903F0030331
:1014BC00DBB2012B09D0FB7903F00303DBB2022B67
:1014CC0001D1082304E00C2302E0042300E00023F4
:1014DC007B82FA79464913469B0013449B000B44CC
:1014EC0001331B78002B29D0FA79414913469B0014
:1014FC0013449B000B4401331B78012B1BD0FA794E
:10150C003B4913469B0013449B000B4401331B784F
:10151C00022B0ED0FA79364913469B0013449B00DC
:10152C000B4401331B78032B01D1324B07E0002312
:10153C0005E0314B03E04FF0804300E02F4BFB60A4
:10154C007B8A0C2B2DD801A252F823F08D150008A4
:10155C00AF150008AF150008AF1500089515000869
:10156C00AF150008AF150008AF1500089D15000851
:10157C00AF150008AF150008AF150008A515000839
:10158C00FB689B8EFB820EE0FB681B8FFB820AE0E4
:10159C00FB689B8FFB8206E0FB68B3F84030FB8254
:1015AC0001E001231FE0FA79114913469B00134413
:1015BC009B000B4401331B78114A1B01134402336B
:1015CC001B88012B07D1FB8A002B0CBF01230023A6
:1015DC00DBB27B7506E0FB8A002B0CBF01230023DA
:1015EC00DBB27B757B7D18461C37BD4680BC7047D3
:1015FC00000000200008004000040040002C0140C6
:10160C00A000002080B586B000AF03460A46FB71EF
:10161C001346BB710023FB75FB7903F00303DBB2AC
:10162C00002B11D0FB7903F00303DBB2012B09D0A3
:10163C00FB7903F00303DBB2022B01D1082304E096
:10164C000C2302E0042300E00023BB82FA796349F7
:10165C0013469B0013449B000B4401331B78002B57
:10166C0029D0FA795D4913469B0013449B000B4427
:10167C0001331B78012B1BD0FA79584913469B0078
:10168C0013449B000B4401331B78022B0ED0FA79C8
:10169C00524913469B0013449B000B4401331B78A7
:1016AC00032B01D14E4B07E0002305E04D4B03E02B
:1016BC004FF0804300E04C4B3B61FA7947491346AD
:1016CC009B0013449B000B4401331B78FB73BB8AB8
:1016DC009B089BB21A4601239340BB73FB79072BE3
:1016EC0002D90123FB7573E0BB79002B02D0BB79C7
:1016FC00022B14D1FB7B3D4AD15CFB7BBA7B0A43AA
:10170C00D1B23A4AD1543B699B899BB203F0010395
:10171C00002B04D101220121386901F0FCFCBB79BA
:10172C00012B02D0BB79022B3BD1BB8A0C2B35D8B9
:10173C0001A252F823F000BF79170008A91700087E
:10174C00A9170008A917000885170008A917000891
:10175C00A9170008A917000891170008A917000875
:10176C00A9170008A91700089D17000801220221DB
:10177C00386901F0D0FC14E001220421386901F031
:10178C00CAFC0EE001220821386901F0C4FC08E013
:10179C0001221021386901F0BEFC02E00123FB7527
:1017AC0000BFFB7D002B13D1FA790C4913469B002B
:1017BC0013449B000B44113301221A70FA79074928
:1017CC0013469B0013449B000B441033BA791A70D8
:1017DC00FB7D18461837BD4680BD00BF00000020B9
:1017EC000008004000040040002C014000010020D3
:1017FC0080B586B000AF0346FB710023FB75FB7907
:10180C0003F00303DBB2002B11D0FB7903F00303CD
:10181C00DBB2012B09D0FB7903F00303DBB2022B03
:10182C0001D1082304E00C2302E0042300E0002390
:10183C00BB82FA79544913469B0013449B000B441A
:10184C0001331B78FB74FA794F4913469B00134400
:10185C009B000B4410331B78BB74FB7C002B11D00A
:10186C00FB7C012B0BD0FB7C022B06D0FB7C032BCF
:10187C0001D1464B07E0002305E0454B03E04FF058
:10188C00804300E0434BFB60BB8A9B089BB21A462B
:10189C0001239340FB72FB79072B02D90123FB75C3
:1018AC006CE0BB7C002B02D0BB7C022B17D1FB7CE9
:1018BC00394AD35C5AB297F90B30DB435BB2134015
:1018CC005AB2FB7CD1B2344AD154FB7C324AD35C41
:1018DC00002B04D100220121F86801F01CFCBB7C18
:1018EC00012B02D0BB7C022B3BD1BB8A0C2B35D8F5
:1018FC0001A252F823F000BF391900086919000839
:10190C0069190008691900084519000869190008C7
:10191C0069190008691900085119000869190008AB
:10192C0069190008691900085D19000800220221D4
:10193C00F86801F0F0FB14E000220421F86801F0D3
:10194C00EAFB0EE000220821F86801F0E4FB08E055
:10195C0000221021F86801F0DEFB02E00123FB7588
:10196C0000BFFB7D002B09D1FA79074913469B0078
:10197C0013449B000B44113300221A70FB7D184654
:10198C001837BD4680BD00BF000000200008004095
:10199C0000040040002C01400001002080B483B002
:1019AC0000AF0346FB7197F90730002B0BDBFB797B
:1019BC0003F01F02064997F907305B09012000FA72
:1019CC0002F241F8232000BF0C37BD4680BC7047A3
:1019DC0000E100E080B586B000AF7860344B1B7836
:1019EC00012B5FD00021786800F0EEFA0346002B43
:1019FC005AD1304A7B6813600023BB7516E07B68B4
:101A0C005A68BB7D1B011344FB60FB681B78002BE1
:101A1C0003D0FB681B78012B05D1FB681B78F96898
:101A2C001846FFF7C7F8BB7D0133BB757B685B7A43
:101A3C00BA7D9A42E3D30023FB751BE07B681968DF
:101A4C00FA7D13469B0013449B000B443B613B699E
:101A5C005B78002B03D03B695B78012B07D13B698A
:101A6C001B781846FFF772F93B6900225A74FB7D0C
:101A7C000133FB757B681B7AFA7D9A42DED3192001
:101A8C00FFF78CFF1B20FFF789FF1C20FFF786FF59
:101A9C001D20FFF783FF1E20FFF780FF044B012260
:101AAC001A7002E000BF00E000BF1837BD4680BDD1
:101ABC00040100200801002080B582B000AF012095
:101ACC0000F09AFA0346002B24D10023BB710AE0E4
:101ADC00BB791846FFF7E6FBBB791846FFF788FE83
:101AEC00BB790133BB71BB79072BF1D90023FB7197
:101AFC0006E0FB791846FFF7CFF8FB790133FB7151
:101B0C00FB79032BF5D9054B00221A60044B0022FC
:101B1C001A7000E000BF0837BD4680BD08010020E8
:101B2C000401002080B582B000AF03460A46FB7169
:101B3C001346BB80022000F05FFA0346002B16D13F
:101B4C00FB790221184600F06BFA0346002B10D1EA
:101B5C00BB880221184600F0A8FA0346002B0AD1D4
:101B6C00BA88FB7911461846FFF7D4F904E000BF98
:101B7C0002E000BF00E000BF0837BD4680BD80B565
:101B8C0084B000AF0346FB710B46BB8013467B80D1
:101B9C00032000F031FA0346002B2FD1FB790321EF
:101BAC00184600F03DFA0346002B29D1BB880321CF
:101BBC00184600F090FA0346002B23D17B880321B2
:101BCC00184600F072FA0346002B1DD1FB79032155
:101BDC00184600F03AFA0346002B17D1FB79184649
:101BEC00FEF7B6FFF860FB689B78002B10D17A8863
:101BFC00B988FB791846FFF767FA0AE000BF08E0DE
:101C0C0000BF06E000BF04E000BF02E000BF00E040
:101C1C0000BF1037BD4680BD80B582B000AF034613
:101C2C00FB71042000F0E8F90346002B0CD1FB7982
:101C3C000421184600F0F4F90346002B06D1FB7979
:101C4C001846FFF72FFB02E000BF00E000BF08378B
:101C5C00BD4680BD80B584B000AF0346FB71012347
:101C6C00FB73052000F0C8F90346002B01D00123BB
:101C7C0010E0FB790521184600F0D2F90346002B41
:101C8C0001D0012306E0FB791846FFF703FC03465D
:101C9C00FB73FB7B18461037BD4680BD80B582B008
:101CAC0000AF0346FB71062000F0A6F90346002B9B
:101CBC0017D1FB790621184600F0B2F90346002B28
:101CCC0011D1FA790A4913469B0013449B000B442B
:101CDC0011331B78012B07D1FB791846FFF788FDD0
:101CEC0002E000BF00E000BF0837BD4680BD00BF6A
:101CFC000000002080B582B000AF03460A46FB719D
:101D0C001346BB71072000F077F90346002B17D15F
:101D1C00FB790721184600F083F90346002B11D1FB
:101D2C00BB79002B05D0BB79012B02D0BB79022BE0
:101D3C000AD1BA79FB7911461846FFF763FC04E027
:101D4C0000BF02E000BF00E000BF0837BD4680BD09
:101D5C0080B582B000AF78600821786800F092F905
:101D6C000346002B0FD17B682B221A807B687922CB
:101D7C005A807B6801221A717B6800225A717B6839
:101D8C0000229A7100E000BF0837BD4680BD80B5C7
:101D9C0084B000AF03460A46FB711346BB80BB8878
:101DAC00012B3AD10023FB7333E0FB799B00DAB2B1
:101DBC00FB7B1344BB72BA7A824913469B001344D3
:101DCC009B000B4411331B78012B1FD1BA7A7D4930
:101DDC0013469B0013449B000B4410331B78022BBF
:101DEC000AD0BA7A774913469B0013449B000B44E4
:101DFC0010331B78002B09D1BA7A724913469B0019
:101E0C0013449B000B440C331B689847FB7B01333A
:101E1C00FB73FB7B032BC8D9CFE0BB88022B30D1E3
:101E2C00FB799B00FB72FA7A664913469B001344BC
:101E3C009B000B4411331B78012B40F0BE80FA7AC7
:101E4C00604913469B0013449B000B4410331B78D2
:101E5C00022B0BD0FA7A5B4913469B0013449B0070
:101E6C000B4410331B78012B40F0A780FA7A5549AC
:101E7C0013469B0013449B000B440C331B68984780
:101E8C009BE0BB88042B31D1FB799B00DBB2013387
:101E9C003B733A7B4B4913469B0013449B000B440A
:101EAC0011331B78012B40F088803A7B454913464F
:101EBC009B0013449B000B4410331B78022B0AD05D
:101ECC003A7B404913469B0013449B000B44103350
:101EDC001B78012B71D13A7B3A4913469B00134472
:101EEC009B000B440C331B68984766E0BB88082B9F
:101EFC0030D1FB799B00DBB202337B737A7B3149A7
:101F0C0013469B0013449B000B4411331B78012B8D
:101F1C0053D17A7B2B4913469B0013449B000B44F3
:101F2C0010331B78022B0AD07A7B264913469B0070
:101F3C0013449B000B4410331B78012B3DD17A7B4F
:101F4C00204913469B0013449B000B440C331B6825
:101F5C00984732E0BB88102B2FD1FB799B00DBB26A
:101F6C000333BB73BA7B174913469B0013449B0086
:101F7C000B4411331B78012B1FD1BA7B114913462B
:101F8C009B0013449B000B4410331B78022B0AD08C
:101F9C00BA7B0C4913469B0013449B000B44103333
:101FAC001B78012B09D1BA7B064913469B001344BD
:101FBC009B000B440C331B68984700BF1037BD4681
:101FCC0080BD00BF0000002080B584B000AF7860F9
:101FDC000B46FB700023FB737B68002B05D07868E5
:101FEC00FEF746FD0346002B01D00123FB73FB7B60
:101FFC0018461037BD4680BD80B483B000AF034691
:10200C00FB71064B1B78002B01D1012300E0002350
:10201C0018460C37BD4680BC704700BF0401002039
:10202C0080B485B000AF03460A46FB711346BB7102
:10203C000023FB73FB79072B01D90123FB73FB7B7B
:10204C0018461437BD4680BC704780B584B000AFCD
:10205C0003460A46FB711346BB710023FB73FB79E5
:10206C001846FEF775FDB860BB68002B05D0BB6841
:10207C009B78002B01D00123FB73FB7B1846103798
:10208C00BD4680BD80B485B000AF78600B46FB7058
:10209C000023FB737B68002B01D10123FB73FB7BBB
:1020AC0018461437BD4680BC704780B485B000AF6D
:1020BC0003460A46FB8013467B710023FB73FB88A7
:1020CC00B3F5004F01D90123FB73FB7B1846143782
:1020DC00BD4680BC704780B485B000AF03460A464D
:1020EC00FB8013467B710023FB73FB88002B01D113
:1020FC000123FB73FB7B18461437BD4680BC70472D
:10210C0080B582B000AF78607B682F4A934208D1CB
:10211C000121042003F02AFA0021042003F026FAFE
:10212C004EE07B68294A934208D10121082003F034
:10213C001DFA0021082003F019FA41E07B68244ABB
:10214C00934208D10121102003F010FA0021102035
:10215C0003F00CFA34E07B681E4A934208D101214B
:10216C00202003F003FA0021202003F0FFF927E0E0
:10217C007B68194A934208D10121402003F0F6F9FB
:10218C000021402003F0F2F91AE07B68134A9342D5
:10219C0008D10121802003F0E9F90021802003F00F
:1021AC00E5F90DE07B680E4A934209D101214FF409
:1021BC00807003F0DBF900214FF4807003F0D6F946
:1021CC0000BF0837BD4680BD00080140000C01402F
:1021DC00001001400014014000180140001C014097
:1021EC000020014080B500AF0121012003F0BEF9B1
:1021FC000021012003F0BAF900BF80BD80B489B082
:10220C0000AF786039600023FB6100233B61002341
:10221C00BB610023FB6000237B610023BB603B6838
:10222C00DB7803F00F03FB613B68DB7803F01003F2
:10223C00002B05D03B689B781A46FB691343FB6166
:10224C003B681B88DBB2002B44D07B681B687B612E
:10225C000023BB6138E00122BB6902FA03F3FB6087
:10226C003B681B881A46FB6813403B613A69FB6864
:10227C009A4226D1BB699B00FB600F22FB6802FAD5
:10228C0003F3BB60BB68DB437A6913407B61FA697B
:10229C00FB6802FA03F37A6913437B613B68DB78D2
:1022AC00282B05D10122BB699A407B685A6108E052
:1022BC003B68DB78482B04D10122BB699A407B68D0
:1022CC001A61BB690133BB61BB69072BC3D97B683E
:1022DC007A691A603B681B88FF2B46D97B685B6860
:1022EC007B610023BB613AE0BB690833012202FA2F
:1022FC0003F3FB603B681B881A46FB6813403B6189
:10230C003A69FB689A4227D1BB699B00FB600F229C
:10231C00FB6802FA03F3BB60BB68DB437A691340CA
:10232C007B61FA69FB6802FA03F37A6913437B61F8
:10233C003B68DB78282B05D1BB69083301229A4016
:10234C007B685A613B68DB78482B05D1BB69083345
:10235C0001229A407B681A61BB690133BB61BB697E
:10236C00072BC1D97B687A695A6000BF2437BD46F8
:10237C0080BC704780B483B000AF78607B684FF648
:10238C00FF721A807B6802229A707B680422DA70D2
:10239C0000BF0C37BD4680BC704780B485B000AF21
:1023AC0078600B467B800023FB737B689A687B8884
:1023BC001340002B02D00123FB7301E00023FB73BD
:1023CC00FB7B18461437BD4680BC704780B483B085
:1023DC0000AF78607B689B689BB218460C37BD4693
:1023EC0080BC704780B485B000AF78600B467B80B2
:1023FC000023FB737B68DA687B881340002B02D0C8
:10240C000123FB7301E00023FB73FB7B184614379D
:10241C00BD4680BC704780B483B000AF78607B68E9
:10242C00DB689BB218460C37BD4680BC704780B445
:10243C0083B000AF78600B467B807A887B681A612A
:10244C0000BF0C37BD4680BC704780B483B000AF72
:10245C0078600B467B807A887B685A6100BF0C37AA
:10246C00BD4680BC704780B483B000AF78600B462B
:10247C007B8013467B707B78002B03D07A887B683B
:10248C001A6102E07A887B685A6100BF0C37BD463E
:10249C0080BC704780B483B000AF78600B467B8003
:1024AC007A887B68DA6000BF0C37BD4680BC704709
:1024BC0080B485B000AF78600B467B804FF48033DE
:1024CC00FB607B88FA681343FB607B68FA689A614F
:1024DC007A887B689A617B68FA689A617B689B69E9
:1024EC00FB607B689B69FB6000BF1437BD4680BCFA
:1024FC00704780B485B000AF03460A46FB711346A3
:10250C00BB710023FB600C4B1B68FB60FA684FF639
:10251C0080731340FB60FB791B01FA681343FB606B
:10252C00BB79FA681343FB60034AFB68136000BF76
:10253C001437BD4680BC70470000014080B483B0A6
:10254C0000AF0346FB71044AFB79136000BF0C37E4
:10255C00BD4680BC704700BF1C00204280B487B0D1
:10256C0000AF78600B46FB7000233B610023FB60DF
:10257C0000237B610023BB607B68002B03DA2E4BAE
:10258C00DB697B6102E02C4B5B687B617B681B0C1D
:10259C0003F00F03BB607B689BB23B617B6803F469
:1025AC004013B3F5401F0AD17B6923F070637B6144
:1025BC00214B5B68204A23F07063536021E07B68F9
:1025CC0003F48013002B0ED00322BB6802FA03F332
:1025DC00FB60FB68DB437A6913407B617B6943F0EA
:1025EC0070637B610DE07B685B0D1B013A6902FA3D
:1025FC0003F3DB437A6913407B617B6943F07063BF
:10260C007B61FB78002B08D07B685B0D1B013A6962
:10261C0002FA03F37A6913437B617B68002B03DABC
:10262C00054A7B69D36102E0034A7B69536000BFB2
:10263C001C37BD4680BC70470000014080B485B09B
:10264C0000AF03460A46FB711346BB710023FB60C7
:10265C00BB7903F003039B000F2202FA03F3FB6028
:10266C00154ABB799B08DBB2023352F82320FB6876
:10267C00DB431148B9798908C9B21A408B1C40F860
:10268C0023200D4ABB799B08DBB2023352F823207E
:10269C00F979BB7903F003039B0001FA03F30648B5
:1026AC00B9798908C9B21A438B1C40F8232000BFA2
:1026BC001437BD4680BC70470000014080B483B025
:1026CC0000AF7860034A7B68136000BF0C37BD46CF
:1026DC0080BC7047DC00204280B582B000AF7860CF
:1026EC007B68784A93420AD101214FF4006002F0D2
:1026FC003DFF00214FF4006002F038FFDEE07B6804
:10270C00B3F1804F08D10121012002F04DFF0021CF
:10271C00012002F049FFD1E07B686B4A934208D15B
:10272C000121022002F040FF0021022002F03CFFB8
:10273C00C4E07B68654A934208D10121042002F071
:10274C0033FF0021042002F02FFFB7E07B68604AC2
:10275C00934208D10121082002F026FF0021082015
:10276C0002F022FFAAE07B685A4A934208D1012169
:10277C00102002F019FF0021102002F015FF9DE03F
:10278C007B68554A934208D10121202002F00CFFAE
:10279C000021202002F008FF90E07B684F4A934212
:1027AC000AD101214FF4005002F0E0FE00214FF459
:1027BC00005002F0DBFE81E07B68494A93420AD16B
:1027CC0001214FF4002002F0D1FE00214FF4002033
:1027DC0002F0CCFE72E07B68424A93420AD101219E
:1027EC004FF4801002F0C2FE00214FF4801002F072
:1027FC00BDFE63E07B683C4A93420AD101214FF451
:10280C00001002F0B3FE00214FF4001002F0AEFEF7
:10281C0054E07B68354A934208D10121402002F0F4
:10282C00C3FE0021402002F0BFFE47E07B68304A27
:10283C00934208D10121802002F0B6FE00218020B5
:10284C0002F0B2FE3AE07B682A4A93420AD1012197
:10285C004FF4807002F0A8FE00214FF4807002F05B
:10286C00A3FE2BE07B68244A93420AD101214FF44A
:10287C00803002F07BFE00214FF4803002F076FEB7
:10288C001CE07B681D4A93420AD101214FF40030B1
:10289C0002F06CFE00214FF4003002F067FE0DE0F8
:1028AC007B68174A934209D101214FF4802002F032
:1028BC005DFE00214FF4802002F058FE00BF083767
:1028CC00BD4680BD002C01400004004000080040C3
:1028DC00000C004000100040001400400034014087
:1028EC00004C0140005001400054014000180040D1
:1028FC00001C00400020004000400140004401400A
:10290C000048014080B485B000AF78603960002386
:10291C00FB817B681B88FB817B682E4A934213D01A
:10292C007B682D4A93420FD07B68B3F1804F0BD05C
:10293C007B682A4A934207D07B68294A934203D08A
:10294C007B68284A934208D1FB8923F07003FB81F2
:10295C003B685A88FB891343FB817B68224A93426C
:10296C000CD07B68214A934208D0FB8923F4407336
:10297C00FB813B68DA88FB891343FB817B68FA890E
:10298C001A803B689A887B689A853B681A887B68B2
:10299C001A857B680F4A93420FD07B680E4A93428C
:1029AC000BD07B68124A934207D07B68114A934242
:1029BC0003D07B68104A934204D13B681B7A1A46B9
:1029CC007B681A867B6801229A8200BF1437BD4649
:1029DC0080BC7047002C01400034014000040040D2
:1029EC0000080040000C00400010004000140040A3
:1029FC0000400140004401400048014080B485B0D3
:102A0C0000AF7860396000237B810023FB810023B9
:102A1C00BB817B681B8C9BB223F001039AB27B6851
:102A2C001A847B681B8CFB817B689B88BB817B68D1
:102A3C001B8B7B817B8923F070037B817B8923F04B
:102A4C0003037B813B681A887B8913437B81FB8959
:102A5C0023F00203FB813B681A89FB891343FB813A
:102A6C003B685A88FB891343FB817B68244A934259
:102A7C000FD07B68234A93420BD07B68224A934247
:102A8C0007D07B68214A934203D07B68204A93424B
:102A9C0023D1FB8923F00803FB813B685A89FB890E
:102AAC001343FB81FB8923F00403FB813B689A8869
:102ABC00FB891343FB81BB8923F48073BB81BB89E6
:102ACC0023F40073BB813B689A89BB891343BB8198
:102ADC003B68DA89BB891343BB817B68BA899A80CE
:102AEC007B687A891A833B68DA887B689A867B686C
:102AFC00FA891A8400BF1437BD4680BC704700BFEA
:102B0C00002C0140003401400040014000440140D1
:102B1C000048014080B485B000AF78603960002374
:102B2C007B810023FB810023BB817B681B8C9BB2C8
:102B3C0023F010039AB27B681A847B681B8CFB8190
:102B4C007B689B88BB817B681B8B7B817B8923F497
:102B5C00E0437B817B8923F440737B813B681B883A
:102B6C001B029AB27B8913437B81FB8923F02003E0
:102B7C00FB813B681B891B019AB2FB891343FB81C8
:102B8C003B685B881B019AB2FB891343FB817B6812
:102B9C00224A934203D07B68214A93422BD1FB8972
:102BAC0023F08003FB813B685B891B019AB2FB8994
:102BBC001343FB81FB8923F04003FB813B689B881B
:102BCC001B019AB2FB891343FB81BB8923F48063FD
:102BDC00BB81BB8923F40063BB813B689B899B0051
:102BEC009AB2BB891343BB813B68DB899B009AB2C9
:102BFC00BB891343BB817B68BA899A807B687A89CD
:102C0C001A833B68DA887B681A877B68FA891A848E
:102C1C0000BF1437BD4680BC704700BF002C01407C
:102C2C000034014080B485B000AF78603960002377
:102C3C007B810023FB810023BB817B681B8C9BB2B7
:102C4C0023F480739AB27B681A847B681B8CFB819B
:102C5C007B689B88BB817B689B8B7B817B8923F00A
:102C6C0070037B817B8923F003037B813B681A888B
:102C7C007B8913437B81FB8923F40073FB813B68C5
:102C8C001B891B029AB2FB891343FB813B685B884F
:102C9C001B029AB2FB891343FB817B68224A934245
:102CAC0003D07B68214A93422BD1FB8923F4006328
:102CBC00FB813B685B891B029AB2FB891343FB8146
:102CCC00FB8923F48063FB813B689B881B029AB2CF
:102CDC00FB891343FB81BB8923F48053BB81BB89E4
:102CEC0023F40053BB813B689B891B019AB2BB89BF
:102CFC001343BB813B68DB891B019AB2BB8913432D
:102D0C00BB817B68BA899A807B687A899A833B6895
:102D1C00DA887B689A877B68FA891A8400BF143733
:102D2C00BD4680BC704700BF002C01400034014000
:102D3C0080B485B000AF786039600023BB8100237C
:102D4C007B810023FB817B681B8C9BB223F480531B
:102D5C009AB27B681A847B681B8C7B817B689B880E
:102D6C00FB817B689B8BBB81BB8923F4E043BB81DC
:102D7C00BB8923F44073BB813B681B881B029AB24E
:102D8C00BB891343BB817B8923F400537B813B6854
:102D9C001B891B039AB27B8913437B813B685B883D
:102DAC001B039AB27B8913437B817B68124A934243
:102DBC0003D07B68114A93420AD1FB8923F48043E8
:102DCC00FB813B689B899B019AB2FB891343FB8176
:102DDC007B68FA899A807B68BA899A833B68DA881F
:102DEC007B68A3F840207B687A891A8400BF14376B
:102DFC00BD4680BC704700BF002C01400034014030
:102E0C0080B582B000AF786039603B681B88002BBE
:102E1C000FD13B6859883B689A883B681B89786856
:102E2C0001F047F93B68DB881946786801F009F82E
:102E3C0036E03B681B88042B0FD13B6859883B68F4
:102E4C009A883B681B89786801F0A4F93B68DB8899
:102E5C001946786801F010F822E03B681B88082BB3
:102E6C000FD13B6859883B689A883B681B89786806
:102E7C0001F00AFA3B68DB881946786801F019F80A
:102E8C000EE03B6859883B689A883B681B897868D8
:102E9C0001F070FA3B68DB881946786801F024F879
:102EAC0000BF0837BD4680BD80B584B000AF7860E8
:102EBC0039600023FB810123BB813B685B88002BBD
:102ECC0002D10223FB8101E00023FB813B689B883C
:102EDC00012B02D10223BB8101E00123BB813B68A2
:102EEC001B88002B1CD13B6859883B689A883B682F
:102EFC001B89786801F0DDF83B68DB881946786837
:102F0C0000F09FFF3B681B89BA89F989786801F04A
:102F1C0041F93B68DB881946786800F0ADFF1BE08F
:102F2C003B6859883B689A883B681B89786801F034
:102F3C0031F93B68DB881946786800F09DFF3B68E7
:102F4C001B89BA89F989786801F0B3F83B68DB888A
:102F5C001946786800F075FF00BF1037BD4680BD7C
:102F6C0080B483B000AF786039603B681A883B68E6
:102F7C005B8813439AB23B689B8813439AB23B68B5
:102F8C00DB8813439AB23B681B8913439AB23B68A4
:102F9C005B8913439AB23B689B8913439AB27B6853
:102FAC00A3F8442000BF0C37BD4680BC704780B4EA
:102FBC0083B000AF78607B684FF6FF729A807B68B5
:102FCC0000221A807B680022DA807B6800225A80FB
:102FDC007B6800221A7200BF0C37BD4680BC70475C
:102FEC0080B483B000AF78607B6800221A807B6865
:102FFC0000225A807B6800229A807B680022DA804B
:10300C007B6800221A817B6800225A817B6800222F
:10301C009A817B680022DA8100BF0C37BD4680BCE8
:10302C00704780B483B000AF78607B6800221A8050
:10303C007B6800225A807B6801229A807B68002280
:10304C00DA807B6800221A8100BF0C37BD4680BC39
:10305C00704780B483B000AF78607B6800221A8020
:10306C007B6800225A807B6800229A807B68002251
:10307C00DA807B6800221A817B6800225A817B6887
:10308C0000229A8100BF0C37BD4680BC704780B4CB
:10309C0083B000AF78600B46FB70FB78002B08D038
:1030AC007B681B889BB243F001039AB27B681A8041
:1030BC0007E07B681B889BB223F001039AB27B6804
:1030CC001A8000BF0C37BD4680BC704780B483B0FB
:1030DC0000AF78600B46FB70FB78002B0CD07B6844
:1030EC00B3F844309BB26FEA43436FEA53439AB24E
:1030FC007B68A3F8442009E07B68B3F844309BB2AA
:10310C00C3F30E039AB27B68A3F8442000BF0C37BC
:10311C00BD4680BC704780B483B000AF78600B466E
:10312C007B8013467B707B78002B08D07B689B8957
:10313C009AB27B8813439AB27B689A8109E07B68C8
:10314C009B899AB27B88DB439BB213409AB27B6813
:10315C009A8100BF0C37BD4680BC704780B483B0E9
:10316C0000AF78600B467B807B687A889A8200BFC0
:10317C000C37BD4680BC704780B483B000AF78601C
:10318C000B467B8013463B807A883B8813439AB26C
:10319C007B68A3F8482000BF0C37BD4680BC704745
:1031AC0080B483B000AF78600B467B8013467B7095
:1031BC007B78002B08D07B689B899AB27B88134361
:1031CC009AB27B689A8109E07B689B899AB27B886A
:1031DC00DB439BB213409AB27B689A8100BF0C37D9
:1031EC00BD4680BC704780B483B000AF78607B680C
:1031FC001B899BB223F007039AB27B681A8100BF2C
:10320C000C37BD4680BC704780B582B000AF78608B
:10321C000B467B807B881946786800F0DFF87B686A
:10322C001B899BB243F007039AB27B681A8100BFDB
:10323C000837BD4680BD80B584B000AFF860084645
:10324C0011461A4603467B810B463B811346FB8095
:10325C007B89602B06D1FB8839890122F86800F044
:10326C0099FF05E0FB8839890122F86800F021FFFD
:10327C007B891946F86800F0B1F8FB681B899BB292
:10328C0043F007039AB2FB681A8100BF1037BD46A2
:10329C0080BD80B586B000AFF860084611461A466E
:1032AC0003467B810B463B811346FB800023FB824C
:1032BC00FB883A897989F86800F039F8FB681B8932
:1032CC00FB82FB8A23F00703FB82FB8A43F0070394
:1032DC00FB82FB8A23F07003FB82FB8A43F07003B2
:1032EC00FB82FB68FA8A1A8100BF1837BD4680BD85
:1032FC0080B584B000AFF860084611461A46034604
:10330C007B810B463B811346FB80FB883A8979898C
:10331C00F86800F00CF8FB681B899BB243F48043FF
:10332C009AB2FB681A8100BF1037BD4680BD80B4CD
:10333C0087B000AFF860084611461A4603467B81F9
:10334C000B463B811346FB800023FB82FB681B89E9
:10335C00FB82FB8ADBB2FB82FB881B029AB23B89A5
:10336C0013439AB27B8913439AB2FB8A1343FB82B1
:10337C00FB68FA8A1A8100BF1C37BD4680BC7047B7
:10338C0080B483B000AF78600B467B8013463B80E3
:10339C007B687A881A857B683A889A8200BF0C37DA
:1033AC00BD4680BC704780B485B000AF78600B46DA
:1033BC007B800023FB817B681B88FB81FB8923F0CE
:1033CC007003FB81FA897B881343FB817B68FA8944
:1033DC001A8000BF1437BD4680BC704780B485B0DE
:1033EC0000AF78600B467B800023FB817B681B89D8
:1033FC00FB81FB8923F07003FB81FA897B881343E3
:10340C00FB817B68FA891A8100BF1437BD4680BCEA
:10341C00704780B487B000AFF860084611461A4672
:10342C0003467B810B463B811346FB800023FB82CA
:10343C000023BB8200237B82FB681B89FB82FB6819
:10344C001B8BBB82FB681B8C7B82FB8A23F00703E4
:10345C00FB82FA8A7B891343FB82BB8A23F4407379
:10346C0023F00303BB82BB8A43F4807343F0010354
:10347C00BB827B8A23F022037B82FB881B019AB2DE
:10348C003B8913439AB27B8A13437B82FB68FA8A8B
:10349C001A81FB68BA8A1A83FB687A8A1A8400BF7D
:1034AC001C37BD4680BC704780B485B000AF7860D7
:1034BC000B467B800023FB817B681B8BFB81FB898C
:1034CC0023F07003FB81FA897B881343FB817B68B3
:1034DC00FA891A8300BF1437BD4680BC704780B48C
:1034EC0085B000AF78600B467B800023FB817B6846
:1034FC001B8BFB81FB8923F4E043FB817B881B0244
:10350C009AB2FB891343FB817B68FA891A8300BF4B
:10351C001437BD4680BC704780B485B000AF78606E
:10352C000B467B800023FB817B689B8BFB81FB899B
:10353C0023F07003FB81FA897B881343FB817B6842
:10354C00FA899A8300BF1437BD4680BC704780B49B
:10355C0085B000AF78600B467B800023FB817B68D5
:10356C009B8BFB81FB8923F4E043FB817B881B0253
:10357C009AB2FB891343FB817B68FA899A8300BF5B
:10358C001437BD4680BC704780B483B000AF786000
:10359C000B46FB70FB78002B08D07B681B889BB21A
:1035AC0043F080039AB27B681A8007E07B681B8823
:1035BC009BB223F080039AB27B681A8000BF0C3751
:1035CC00BD4680BC704780B483B000AF78600B46BA
:1035DC00FB70FB78002B08D07B689B889BB243F078
:1035EC0004039AB27B689A8007E07B689B889BB245
:1035FC0023F004039AB27B689A8000BF0C37BD4657
:10360C0080BC704780B483B000AF78600B46FB7011
:10361C00FB78002B08D07B689B889BB243F0080397
:10362C009AB27B689A8007E07B689B889BB223F0F8
:10363C0008039AB27B689A8000BF0C37BD4680BCE9
:10364C00704780B483B000AF78600B46FB70FB789A
:10365C00002B08D07B689B889BB243F001039AB285
:10366C007B689A8007E07B689B889BB223F0010300
:10367C009AB27B689A8000BF0C37BD4680BC7047FD
:10368C0080B485B000AF78600B467B800023FB8153
:10369C007B681B8BFB81FB8923F00803FB81FA8978
:1036AC007B881343FB817B68FA891A8300BF14372C
:1036BC00BD4680BC704780B485B000AF78600B46C7
:1036CC007B800023FB817B681B8BFB81FB8923F4B4
:1036DC000063FB817B881B029AB2FB891343FB813D
:1036EC007B68FA891A8300BF1437BD4680BC7047CB
:1036FC0080B485B000AF78600B467B800023FB81E3
:10370C007B689B8BFB81FB8923F00803FB81FA8987
:10371C007B881343FB817B68FA899A8300BF14373B
:10372C00BD4680BC704780B485B000AF78600B4656
:10373C007B800023FB817B689B8BFB81FB8923F4C3
:10374C000063FB817B881B029AB2FB891343FB81CC
:10375C007B68FA899A8300BF1437BD4680BC7047DA
:10376C0080B485B000AF78600B467B800023FB8172
:10377C007B681B8BFB81FB8923F00403FB81FA899B
:10378C007B881343FB817B68FA891A8300BF14374B
:10379C00BD4680BC704780B485B000AF78600B46E6
:1037AC007B800023FB817B681B8BFB81FB8923F4D3
:1037BC008063FB817B881B029AB2FB891343FB81DC
:1037CC007B68FA891A8300BF1437BD4680BC7047EA
:1037DC0080B485B000AF78600B467B800023FB8102
:1037EC007B689B8BFB81FB8923F00403FB81FA89AB
:1037FC007B881343FB817B68FA899A8300BF14375B
:10380C00BD4680BC704780B485B000AF78600B4675
:10381C007B800023FB817B689B8BFB81FB8923F4E2
:10382C008063FB817B881B029AB2FB891343FB816B
:10383C007B68FA899A8300BF1437BD4680BC7047F9
:10384C0080B485B000AF78600B467B800023FB8191
:10385C007B681B8BFB81FB8923F08003FB81FA893E
:10386C007B881343FB817B68FA891A8300BF14376A
:10387C00BD4680BC704780B485B000AF78600B4605
:10388C007B800023FB817B681B8BFB81FB89C3F353
:10389C000E03FB817B881B029AB2FB891343FB81CD
:1038AC007B68FA891A8300BF1437BD4680BC704709
:1038BC0080B485B000AF78600B467B800023FB8121
:1038CC007B689B8BFB81FB8923F08003FB81FA894E
:1038DC007B881343FB817B68FA899A8300BF14377A
:1038EC00BD4680BC704780B485B000AF78600B4695
:1038FC007B800023FB817B689B8BFB81FB89C3F363
:10390C000E03FB817B881B029AB2FB891343FB815C
:10391C007B68FA899A8300BF1437BD4680BC704718
:10392C0080B485B000AF78600B467B800023FB81B0
:10393C007B681B8CFB81FB8923F00203FB81FA89DA
:10394C007B881343FB817B68FA891A8400BF143788
:10395C00BD4680BC704780B485B000AF78600B4624
:10396C007B800023FB817B681B8CFB81FB8923F014
:10397C000803FB81FA897B881343FB817B68FA89F6
:10398C001A8400BF1437BD4680BC704780B485B024
:10399C0000AF78600B467B800023FB817B681B8C1F
:1039AC00FB81FB8923F02003FB817B881B019AB2EE
:1039BC00FB891343FB817B68FA891A8400BF143797
:1039CC00BD4680BC704780B485B000AF78600B46B4
:1039DC007B800023FB817B681B8CFB81FB8923F0A4
:1039EC008003FB817B881B019AB2FB891343FB810B
:1039FC007B68FA891A8400BF1437BD4680BC7047B7
:103A0C0080B485B000AF78600B467B800023FB81CF
:103A1C007B681B8CFB81FB8923F40073FB817B8807
:103A2C001B029AB2FB891343FB817B68FA891A84C7
:103A3C0000BF1437BD4680BC704780B485B000AF62
:103A4C0078600B467B800023FB817B681B8CFB81A1
:103A5C00FB8923F40063FB817B881B029AB2FB89F0
:103A6C001343FB817B68FA891A8400BF1437BD4667
:103A7C0080BC704780B485B000AF78600B467B800B
:103A8C000023FB817B681B8CFB81FB8923F4005397
:103A9C00FB817B881B039AB2FB891343FB817B68F8
:103AAC00FA891A8400BF1437BD4680BC704780B4B5
:103ABC0085B000AF78600B467B8013463B800023BB
:103ACC00FB817B88012202FA03F3FB817B681B8C50
:103ADC009AB2FB89DB439BB213409AB27B681A847F
:103AEC007B681B8C9AB239887B8801FA03F39BB2F2
:103AFC0013439AB27B681A8400BF1437BD4680BC4E
:103B0C00704780B485B000AF78600B467B8013465D
:103B1C003B800023FB817B88042202FA03F3FB81A8
:103B2C007B681B8C9AB2FB89DB439BB213409AB225
:103B3C007B681A847B681B8C9AB239887B8801FA63
:103B4C0003F39BB213439AB27B681A8400BF1437F9
:103B5C00BD4680BC704780B485B000AF78600B4622
:103B6C007B8013463B800023FB6000237B817B68BA
:103B7C00FB60FB681833FB607B88012202FA03F3BD
:103B8C007B817B681B8C9AB27B89DB439BB2134095
:103B9C009AB27B681A847B88002B02D07B88082B16
:103BAC0013D17B885B089BB21A46FB681344FB60FD
:103BBC00FB681A68FB6822F070021A60FB681968CF
:103BCC003A88FB680A431A6018E07B88043B9BB276
:103BDC005B089BB21A46FB681344FB60FB681A68CF
:103BEC00FB6822F4E0421A60FB681A683B881B02EF
:103BFC009BB21946FB680A431A6000BF00BF14371A
:103C0C00BD4680BC704780B483B000AF78600B4673
:103C1C00FB70FB78002B08D07B681B889BB243F0B1
:103C2C0002039AB27B681A8007E07B681B889BB200
:103C3C0023F002039AB27B681A8000BF0C37BD4692
:103C4C0080BC704780B483B000AF78600B467B803B
:103C5C007B88002B08D07B681B889BB243F0040345
:103C6C009AB27B681A8007E07B681B889BB223F0B2
:103C7C0004039AB27B681A8000BF0C37BD4680BC27
:103C8C00704780B483B000AF78600B46FB70FB7854
:103C9C00002B08D07B689B889BB243F080039AB2C0
:103CAC007B689A8007E07B689B889BB223F080033B
:103CBC009AB27B689A8000BF0C37BD4680BC7047B7
:103CCC0080B483B000AF78600B467B807B681B8828
:103CDC009BB223F008039AB27B681A807B681B881E
:103CEC009AB27B8813439AB27B681A8000BF0C3758
:103CFC00BD4680BC704780B483B000AF78600B4683
:103D0C007B807B689B889BB223F070039AB27B68A4
:103D1C009A807B689B889AB27B8813439AB27B68A3
:103D2C009A8000BF0C37BD4680BC704780B483B00E
:103D3C0000AF78600B467B807B681B899BB223F0BD
:103D4C0007039AB27B681A817B681B899AB27B88BD
:103D5C0013439AB27B681A8100BF0C37BD4680BCF6
:103D6C00704780B483B000AF78600B467B807B6873
:103D7C001B899BB223F080039AB27B681A817B6803
:103D8C001B899AB27B8813439AB27B681A8100BF55
:103D9C000C37BD4680BC704780B483B000AF7860F0
:103DAC000B467B807B687A889A8400BF0C37BD46B3
:103DBC0080BC704780B483B000AF78600B467B80CA
:103DCC007B687A889A8500BF0C37BD4680BC7047EB
:103DDC0080B483B000AF78600B467B807B687A88B8
:103DEC009A8600BF0C37BD4680BC704780B483B048
:103DFC0000AF78600B467B807B687A881A8700BF9F
:103E0C000C37BD4680BC704780B483B000AF78607F
:103E1C000B467B807B687A889A8700BF0C37BD463F
:103E2C0080BC704780B483B000AF78600B467B8059
:103E3C007B687A88A3F8402000BF0C37BD4680BC55
:103E4C00704780B483B000AF78600B467B807B6892
:103E5C001B8B9BB223F00C039AB27B681A837B6892
:103E6C001B8B9AB27B8813439AB27B681A8300BF70
:103E7C000C37BD4680BC704780B483B000AF78600F
:103E8C000B467B807B681B8B9BB223F440639AB2FE
:103E9C007B681A837B681B8B9AB27B881B029BB254
:103EAC0013439AB27B681A8300BF0C37BD4680BCA3
:103EBC00704780B483B000AF78600B467B807B6822
:103ECC009B8B9BB223F00C039AB27B689A837B6822
:103EDC009B8B9AB27B8813439AB27B689A8300BF00
:103EEC000C37BD4680BC704780B483B000AF78609F
:103EFC000B467B807B689B8B9BB223F440639AB20E
:103F0C007B689A837B689B8B9AB27B881B029BB2E3
:103F1C0013439AB27B689A8300BF0C37BD4680BCB2
:103F2C00704780B483B000AF78600B467B807B68B1
:103F3C001B889BB223F440739AB27B681A807B680F
:103F4C001B889AB27B8813439AB27B681A8000BF95
:103F5C000C37BD4680BC704780B483B000AF78602E
:103F6C007B689B8E9BB218460C37BD4680BC704755
:103F7C0080B483B000AF78607B681B8F9BB218460F
:103F8C000C37BD4680BC704780B483B000AF7860FE
:103F9C007B689B8F9BB218460C37BD4680BC704724
:103FAC0080B483B000AF78607B68B3F840309BB2CC
:103FBC0018460C37BD4680BC704780B483B000AF48
:103FCC0078607B689B8C9BB218460C37BD4680BCD6
:103FDC00704780B483B000AF78607B681B8D9BB258
:103FEC0018460C37BD4680BC704780B485B000AF16
:103FFC0078600B467B800023FB737B681B8A9AB22C
:10400C007B8813409BB2002B02D00123FB7301E091
:10401C000023FB73FB7B18461437BD4680BC7047EE
:10402C0080B483B000AF78600B467B807B88DB4329
:10403C009AB27B681A8200BF0C37BD4680BC7047B1
:10404C0080B485B000AF78600B467B800023FB7397
:10405C000023BB8100237B817B681B8A9AB27B88FF
:10406C001340BB817B689B899AB27B8813407B8110
:10407C00BB89002B05D07B89002B02D00123FB735D
:10408C0001E00023FB73FB7B18461437BD4680BC54
:10409C00704780B483B000AF78600B467B807B8820
:1040AC00DB439AB27B681A8200BF0C37BD4680BCDA
:1040BC00704780B487B000AFF860084611461A46C6
:1040CC0003467B810B463B811346FB800023BB825E
:1040DC000023FB82FB681B8C9BB223F001039AB27A
:1040EC00FB681A84FB681B8BBB82FB681B8CFB82F6
:1040FC00BB8A23F0F303BB82FB881B019AB23B897A
:10410C0013439AB2BB8A1343BB82FB681C4A93428B
:10411C0013D0FB681B4A93420FD0FB68B3F1804F5E
:10412C000BD0FB68184A934207D0FB68174A93429E
:10413C0003D0FB68164A93420BD1FB8A23F002038F
:10414C00FB827A89FB8A13439BB243F00103FB8207
:10415C000AE0FB8A23F00A03FB827A89FB8A134369
:10416C009BB243F00103FB82FB68BA8A1A83FB689B
:10417C00FA8A1A8400BF1C37BD4680BC704700BF4A
:10418C00002C0140003401400004004000080040B5
:10419C00000C004080B487B000AFF86008461146B0
:1041AC001A4603467B810B463B811346FB8000235A
:1041BC00BB820023FB8200237B82FB681B8C9BB29F
:1041CC0023F010039AB2FB681A84FB681B8BBB822A
:1041DC00FB681B8CFB827B891B017B82BB8A23F4D3
:1041EC0040731B051B0DBB82FB881B039AB2BB8A59
:1041FC001343BB823B891B029AB2BB8A1343BB821B
:10420C00FB681C4A934213D0FB681B4A93420FD0A5
:10421C00FB68B3F1804F0BD0FB68184A934207D070
:10422C00FB68174A934203D0FB68164A93420BD1A2
:10423C00FB8A23F02003FB827A8AFB8A13439BB20E
:10424C0043F01003FB820AE0FB8A23F0A003FB82FD
:10425C007A89FB8A13439BB243F01003FB82FB6801
:10426C00BA8A1A83FB68FA8A1A8400BF1C37BD46C7
:10427C0080BC7047002C0140003401400004004019
:10428C0000080040000C004080B487B000AFF8601C
:10429C00084611461A4603467B810B463B81134662
:1042AC00FB800023BB820023FB8200237B82FB6804
:1042BC001B8C9BB223F480739AB2FB681A84FB6844
:1042CC009B8BBB82FB681B8CFB827B891B027B82DA
:1042DC00BB8A23F0F303BB82FB881B019AB23B8998
:1042EC0013439AB2BB8A1343BB82FB681C4A9342AA
:1042FC0013D0FB681B4A93420FD0FB68B3F1804F7D
:10430C000BD0FB68184A934207D0FB68174A9342BC
:10431C0003D0FB68164A93420BD1FB8A23F400733B
:10432C00FB827A8AFB8A13439BB243F48073FB8231
:10433C000AE0FB8A23F42063FB827A89FB8A13430D
:10434C009BB243F48073FB82FB68BA8A9A83FB6846
:10435C00FA8A1A8400BF1C37BD4680BC704700BF68
:10436C00002C0140003401400004004000080040D3
:10437C00000C004080B487B000AFF86008461146CE
:10438C001A4603467B810B463B811346FB80002378
:10439C00BB820023FB8200237B82FB681B8C9BB2BD
:1043AC0023F480539AB2FB681A84FB689B8BBB8204
:1043BC00FB681B8CFB827B891B037B82BB8A23F4EF
:1043CC0040731B051B0DBB823B891B029AB2BB8A37
:1043DC001343BB82FB881B039AB2BB8A1343BB8279
:1043EC00FB681D4A934213D0FB681C4A93420FD0C2
:1043FC00FB68B3F1804F0BD0FB68194A934207D08E
:10440C00FB68184A934203D0FB68174A93420BD1BE
:10441C00FB8A23F40053FB827A8AFB8A13439BB2F8
:10442C0043F48053FB820CE0FB8A23F400735B049F
:10443C005B0CFB827A89FB8A13439BB243F4805357
:10444C00FB82FB68BA8A9A83FB68FA8A1A8400BFDB
:10445C001C37BD4680BC7047002C01400034014025
:10446C000004004000080040000C004080B483B001
:10447C0000AF7860054A7B6843F0BF6343F40033B8
:10448C00D36000BF0C37BD4680BC704700ED00E028
:10449C0080B487B000AF786000237B6100233B6160
:1044AC000F23FB607B68DB78002B3AD0274BDB6853
:1044BC00DB431B0A03F007037B617B69C3F1040335
:1044CC003B61FA687B6922FA03F3FB607B685B78DB
:1044DC001A463B6902FA03F37B617B689B781A46A8
:1044EC00FB6813407A6913437B617B691B017B6119
:1044FC00174A7B681B787969C9B213440A4683F85A
:10450C0000237B681B7803F01F0311497A6812782B
:10451C005209D2B21046012202FA03F341F82030BC
:10452C000FE07B681B7803F01F0309497A68127847
:10453C005209D2B2104601229A4000F1200341F8F0
:10454C00232000BF1C37BD4680BC704700ED00E047
:10455C0000E100E080B483B000AF786039603B6864
:10456C0023F0604323F07F0304497A6813438B6084
:10457C0000BF0C37BD4680BC704700BF00ED00E0AB
:10458C0080B483B000AF03460A46FB711346BB717F
:10459C00BB79002B06D0094B1A69FB7907491343E9
:1045AC000B6106E0054B1A69FB79DB4303491340A9
:1045BC000B6100BF0C37BD4680BC704700ED00E0BE
:1045CC0080B483B000AF78607B68042B06D1094BB4
:1045DC001B68084A43F00403136005E0054B1B6895
:1045EC00044A23F00403136000BF0C37BD4680BCA3
:1045FC00704700BF10E000E080B485B000AF786079
:10460C000023FB60094B1B68FB60FB6803F038035D
:10461C00FB60FA687B681343FB60044AFB68136019
:10462C0000BF1437BD4680BC704700BF002002405D
:10463C0080B483B000AF7860084B1B68074A23F046
:10464C0008031360054B1A6804497B6813430B601D
:10465C0000BF0C37BD4680BC704700BF0020024035
:10466C0080B483B000AF7860084B1B68074A23F016
:10467C0010031360054B1A6804497B6813430B60E5
:10468C0000BF0C37BD4680BC704700BF0020024005
:10469C0080B400AF044B054A5A60034B044A5A607D
:1046AC0000BFBD4680BC7047002002402301674517
:1046BC00AB89EFCD80B400AF044B054A5A60034B75
:1046CC00044A5A6000BFBD4680BC704700200240BF
:1046DC0023016745AB89EFCD80B400AF044B1B6958
:1046EC00034A43F08003136100BFBD4680BC704792
:1046FC000020024080B400AF044B1B69034A43F016
:10470C008003136100BFBD4680BC7047002002408F
:10471C0080B584B000AF78600423FB734FF4302075
:10472C0000F0D0FB0346FB73FB7B042B1BD1104B1F
:10473C001B690F4A43F0020313610D4A7B685361F6
:10474C000B4B1B690A4A43F0400313614FF43020B2
:10475C0000F0B8FB0346FB73054B1A69044941F69C
:10476C00FD7313400B61FB7B18461037BD4680BDB3
:10477C000020024080B582B000AF0423FB714FF4DF
:10478C00302000F09FFB0346FB71FB79042B18D102
:10479C000E4B1B690D4A43F0040313610B4B1B6951
:1047AC000A4A43F0400313614FF4302000F08AFBB7
:1047BC000346FB71054B1A69044941F6FB73134020
:1047CC000B61FB7918460837BD4680BD00200240BE
:1047DC0080B582B000AF0423FB714FF4302000F0A1
:1047EC0093FB0346FB71FB79042B18D10E4B1B6911
:1047FC000D4A43F0040313610B4B1B690A4A43F047
:10480C00400313614FF4302000F07EFB0346FB7134
:10481C00054B1A69044941F6FB7313400B61FB7994
:10482C0018460837BD4680BD0020024080B582B0D6
:10483C0000AFA523FB8004237B7100F06BFA0346C9
:10484C00002B01D00023FB804FF4302000F03AFB0A
:10485C0003467B717B79042B45D1254B254A9A6005
:10486C00234B254A9A60224B1B69214A43F02003B3
:10487C0013611F4B1B691E4A43F0400313614FF435
:10488C00302000F01FFB03467B717B79042B20D179
:10489C00174B1A69164941F6DF7313400B61144B21
:1048AC001B69134A43F010031361144AFB881380ED
:1048BC004FF4005000F006FB03467B717B79052B0F
:1048CC0011D00B4B1A690A4941F6EF7313400B6177
:1048DC0009E07B79052B06D0054B1A69044941F692
:1048EC00EF7313400B617B7918460837BD4680BDCA
:1048FC000020024023016745AB89EFCD00F8FF1F74
:10490C0080B584B000AF786039600423FB7300235A
:10491C00BB604FF4005000F0D5FA0346FB73FB7BF1
:10492C00042B2FD11A4B1B69194A43F00103136155
:10493C007B683A6892B21A804FF4005000F0C2FAC9
:10494C000346FB73FB7B042B15D17B680233BB60E6
:10495C003B681A0CBB6892B21A804FF4005000F0FE
:10496C00B1FA0346FB730A4B1A69094941F6FE7307
:10497C0013400B6106E0064B1A69054941F6FE73BC
:10498C0013400B61FB7B18461037BD4680BD00BF42
:10499C000020024080B584B000AF78600B467B806D
:1049AC000423FB734FF4005000F08CFA0346FB73A6
:1049BC00FB7B042B15D10D4B1B690C4A43F00103F7
:1049CC0013617B687A881A804FF4005000F07AFAF1
:1049DC000346FB73054B1A69044941F6FE731340F9
:1049EC000B61FB7B18461037BD4680BD0020024092
:1049FC0080B584B000AF78600B46FB700423FB736A
:104A0C004FF4005000F05EFA0346FB73FB7B042B63
:104A1C001FD1124B124A9A60104B124A9A600F4BDC
:104A2C001B690E4A43F0100313617B68FA7892B24B
:104A3C001A804FF4005000F045FA0346FB73FB7BE1
:104A4C00052B06D0054B1A69044941F6EF73134048
:104A5C000B61FB7B18461037BD4680BD0020024021
:104A6C0023016745AB89EFCD80B586B000AF786088
:104A7C004FF6FF73BB824FF6FF737B824FF6FF73CB
:104A8C003B824FF6FF73FB810423FB757B68DB4392
:104A9C007B607B689BB2DBB2BB827B681B0A9BB2E0
:104AAC00DBB27B827B681B0C9BB2DBB23B827B68EC
:104ABC001B0EFB814FF4005000F004FA0346FB750B
:104ACC00FB7D042B4ED12A4B2A4A9A60284B2A4A4A
:104ADC009A60274B1B69264A43F010031361BB8A6B
:104AEC00FF2B08D0254ABB8A13814FF4005000F0ED
:104AFC00E9F90346FB75FB7D042B0BD17B8AFF2B5D
:104B0C0008D01E4A7B8A53814FF4005000F0DAF92A
:104B1C000346FB75FB7D042B0BD13B8AFF2B08D086
:104B2C00164A3B8A93814FF4005000F0CBF90346B0
:104B3C00FB75FB7D042B0BD1FB89FF2B08D00F4A97
:104B4C00FB89D3814FF4005000F0BCF90346FB7590
:104B5C00FB7D052B06D0064B1A69054941F6EF7310
:104B6C0013400B61FB7D18461837BD4680BD00BF56
:104B7C000020024023016745AB89EFCD00F8FF1FF1
:104B8C0080B584B000AF0346FB710423FB734FF474
:104B9C00302000F097F90346FB73FB7B042B4CD1C0
:104BAC00284B294A9A60274B284A9A60254B1B6947
:104BBC00244A43F020031361224B1B69214A43F022
:104BCC00400313614FF4302000F07CF90346FB7373
:104BDC00FB7B042B27D11B4B1A691A4941F6DF7357
:104BEC0013400B61174B1B69164A43F010031361FA
:104BFC00FB79002B03D0164B00221A8002E0144BD9
:104C0C00A5221A804FF4302000F05CF90346FB73A8
:104C1C00FB7B052B11D00B4B1A690A4941F6EF733C
:104C2C0013400B6109E0FB7B052B06D0054B1A6981
:104C3C00044941F6DF7313400B61FB7B18461037B8
:104C4C00BD4680BD0020024023016745AB89EFCDF6
:104C5C0000F8FF1F80B584B000AF0346FB800B4605
:104C6C00BB8013467B800423FB731B4B1B4A9A604F
:104C7C00194B1B4A9A604FF4005000F023F903467D
:104C8C00FB73FB7B042B21D1134B1B69124A43F0A2
:104C9C00100313617A88BB8813439AB2FB881343C1
:104CAC009BB2104A43F0F8039BB253804FF4005070
:104CBC0000F008F90346FB73FB7B052B06D0064B73
:104CCC001A69054941F6EF7313400B61FB7B1846DB
:104CDC001037BD4680BD00BF002002402301674550
:104CEC00AB89EFCD00F8FF1F80B400AF034BDB693D
:104CFC009B081846BD4680BC704700BF0020024090
:104D0C0080B400AF024B1B6A1846BD4680BC70478E
:104D1C000020024080B483B000AF0023FB71084B2D
:104D2C00DB6903F00203002B02D00123FB7101E0CD
:104D3C000023FB71FB7918460C37BD4680BC7047CD
:104D4C000020024080B483B000AF0023FB71084BFD
:104D5C001B6803F02003002B02D00123FB7101E040
:104D6C000023FB71FB7918460C37BD4680BC70479D
:104D7C000020024080B483B000AF78600B46FB701B
:104D8C00FB78002B06D0094B1A6908497B68134342
:104D9C000B6106E0054B1A697B68DB430349134042
:104DAC000B6100BF0C37BD4680BC70470020024031
:104DBC0080B485B000AF78600023FB737B68012B57
:104DCC000BD10E4BDB6903F00103002B02D0012346
:104DDC00FB730DE00023FB730AE0084BDA687B6879
:104DEC001340002B02D00123FB7301E00023FB7363
:104DFC00FB7B18461437BD4680BC70470020024030
:104E0C0080B483B000AF7860034A7B68D36000BF86
:104E1C000C37BD4680BC70470020024080B483B084
:104E2C0000AF0423FB71114BDB6803F00103012B72
:104E3C0002D10123FB7113E00C4BDB6803F004037C
:104E4C00002B02D00223FB710AE0084BDB6803F055
:104E5C001003002B02D00323FB7101E00423FB7130
:104E6C00FB7918460C37BD4680BC704700200240C9
:104E7C0080B483B000AF0423FB71114BDB6803F0EB
:104E8C000103012B02D10123FB7113E00C4BDB68F6
:104E9C0003F00403002B02D00223FB710AE0084B41
:104EAC00DB6803F01003002B02D00323FB7101E03D
:104EBC000423FB71FB7918460C37BD4680BC704748
:104ECC000020024080B584B000AF78600423FB73EF
:104EDC00FFF7CEFF0346FB7306E0FFF7C9FF03465F
:104EEC00FB737B68013B7B60FB7B012B02D17B68F6
:104EFC00002BF2D17B68002B01D10523FB73FB7BCC
:104F0C0018461037BD4680BD80B584B000AF7860C0
:104F1C000423FB73FFF7ACFF0346FB7306E0FFF7BC
:104F2C00A7FF0346FB737B68013B7B60FB7B012B7C
:104F3C0002D17B68002BF2D17B68002B01D10523B9
:104F4C00FB73FB7B18461037BD4680BD80B400AFA9
:104F5C00134B1B68124A43F001031360104B5A6841
:104F6C000F49104B13404B600D4B1B680C4A23F040
:104F7C00847323F480331360094B1B68084A23F4B1
:104F8C0080231360064B5B68054A23F4FE035360D1
:104F9C00034B4FF41F029A6000BFBD4680BC7047A4
:104FAC00001002400000FFF880B483B000AF7860BE
:104FBC00134B1B68124A23F480331360104B1B688D
:104FCC000F4A23F4802313607B68B3F5803F04D031
:104FDC007B68B3F5802F07D00DE0094B1B68084A9E
:104FEC0043F48033136006E0054B1B68044A43F41A
:104FFC00A023136000BF00BF0C37BD4680BC7047B8
:10500C000010024080B582B000AF00233B6000234B
:10501C00FB710023BB71312000F014FB0346BB7104
:10502C003B6801333B603B68B3F5A06F02D0BB79A2
:10503C00002BF0D0312000F005FB0346002B02D0F2
:10504C000123FB7101E00023FB71FB791846083743
:10505C00BD4680BD80B485B000AF0346FB71002314
:10506C00FB600A4B1B68FB60FB6823F0F803FB60DA
:10507C00FB79DB00FA681343FB60044AFB6813609E
:10508C0000BF1437BD4680BC704700BF0010024003
:10509C0080B483B000AF0346FB71044AFB79136004
:1050AC0000BF0C37BD4680BC704700BF00004242B9
:1050BC0080B485B000AF786039600023FB600A4B88
:1050CC005B68FB60FB6823F47C13FB607A683B68CD
:1050DC001343FA681343FB60034AFB68536000BF39
:1050EC001437BD4680BC70470010024080B483B0BA
:1050FC0000AF0346FB71044AFB79136000BF0C3709
:10510C00BD4680BC704700BF6000424280B485B091
:10511C0000AF78600023FB60094B5B68FB60FB68A9
:10512C0023F00303FB60FA687B681343FB60044ABB
:10513C00FB68536000BF1437BD4680BC704700BF8E
:10514C000010024080B400AF044B5B68DBB203F08C
:10515C000C03DBB21846BD4680BC70470010024001
:10516C0080B485B000AF78600023FB60094B5B68AE
:10517C00FB60FB6823F0F003FB60FA687B68134369
:10518C00FB60044AFB68536000BF1437BD4680BC0B
:10519C00704700BF0010024080B485B000AF78604B
:1051AC000023FB60094B5B68FB60FB6823F4E06346
:1051BC00FB60FA687B681343FB60044AFB6853602E
:1051CC0000BF1437BD4680BC704700BF00100240C2
:1051DC0080B485B000AF78600023FB60094B5B683E
:1051EC00FB60FB6823F46053FB607B68DB00FA68B0
:1051FC001343FB60034AFB68536000BF1437BD4682
:10520C0080BC70470010024080B483B000AF0346EE
:10521C000A46FB711346BB71BB79002B08D00C4BB3
:10522C001B78DAB20A49FB791343DBB20B7009E045
:10523C00074B1B78DAB2FB79DB43DBB20449134032
:10524C00DBB20B7000BF0C37BD4680BC704700BF93
:10525C000910024080B483B000AF7860034A7B68C9
:10526C00136000BF0C37BD4680BC7047D80042426B
:10527C0080B485B000AF78600023FB60094B5B689D
:10528C00FB60FB6823F44043FB60FA687B681343C4
:10529C00FB60044AFB68536000BF1437BD4680BCFA
:1052AC00704700BF0010024080B483B000AF0346CB
:1052BC00FB710C4B00221A700A4B00221A70FB79FE
:1052CC00012B02D0042B04D007E0064B01221A70EC
:1052DC0003E0044B05221A7000BF00BF0C37BD461B
:1052EC0080BC70472010024080B483B000AF0346EE
:1052FC00FB71044AFB79136000BF0C37BD4680BCC0
:10530C00704700BF8004424280B483B000AF786025
:10531C00054B1A6A04497B6813430B6200BF0C37B8
:10532C00BD4680BC704700BF0010024080B483B003
:10533C0000AF0346FB71044AFB79136000BF0C37C6
:10534C00BD4680BC704700BF3C04424280B487B06D
:10535C0000AF786000237B6100233B610023FB607E
:10536C000023BB604F4B5B6803F00C037B617B69D4
:10537C00082B11D07B69082B3AD87B69002B03D002
:10538C007B69042B04D033E07B68474A1A6033E016
:10539C007B68454A1A602FE0424B5B6803F470133C
:1053AC003B61404B5B6803F48033FB603B699B0CB7
:1053BC0002333B61FB68002B06D13B693B4A03FB84
:1053CC0002F27B681A6017E0364B5B6803F400331B
:1053DC00002B06D03B69354A03FB02F27B681A604E
:1053EC000AE03B69304A03FB02F27B681A6003E077
:1053FC007B682D4A1A6000BF2A4B5B6803F0F003F0
:10540C007B617B691B097B61294A7B6913441B788F
:10541C00DBB2BB607B681A68BB68DA407B685A6099
:10542C00204B5B6803F4E0637B617B691B0A7B6147
:10543C001F4A7B6913441B78DBB2BB607B685A68DC
:10544C00BB68DA407B689A60164B5B6803F4605368
:10545C007B617B69DB0A7B61154A7B6913441B7892
:10546C00DBB2BB607B685A68BB68DA407B68DA6089
:10547C000C4B5B6803F440437B617B699B0B7B614A
:10548C000C4A7B6913441B78DBB2BB607B68DA681F
:10549C00BB68B2FBF3F27B681A6100BF1C37BD46D8
:1054AC0080BC70470010024000127A0000093D00D9
:1054BC00E0000020F000002080B483B000AF7860E2
:1054CC000B46FB70FB78002B06D0094B5A69084938
:1054DC007B6813434B6106E0054B5A697B68DB43E1
:1054EC00034913404B6100BF0C37BD4680BC70476D
:1054FC000010024080B483B000AF78600B46FB70A4
:10550C00FB78002B06D0094B9A6908497B6813433A
:10551C008B6106E0054B9A697B68DB4303491340BA
:10552C008B6100BF0C37BD4680BC70470010024039
:10553C0080B483B000AF78600B46FB70FB78002B17
:10554C0006D0094BDA6908497B681343CB6106E046
:10555C00054BDA697B68DB4303491340CB6100BF21
:10556C000C37BD4680BC70470010024080B483B03D
:10557C0000AF78600B46FB70FB78002B06D0094B14
:10558C00DA6808497B681343CB6006E0054BDA68A0
:10559C007B68DB4303491340CB6000BF0C37BD462F
:1055AC0080BC70470010024080B483B000AF7860BC
:1055BC000B46FB70FB78002B06D0094B1A69084987
:1055CC007B6813430B6106E0054B1A697B68DB4370
:1055DC00034913400B6100BF0C37BD4680BC7047BC
:1055EC000010024080B483B000AF0346FB71044A44
:1055FC00FB79136000BF0C37BD4680BC704700BF01
:10560C004004424280B483B000AF0346FB71044AAD
:10561C00FB79136000BF0C37BD4680BC704700BFE0
:10562C004C00424280B483B000AF0346FB71044A85
:10563C00FB79137000BF0C37BD4680BC704700BFB0
:10564C000710024080B487B000AF0346FB71002303
:10565C00FB6000237B610023FB74FB795B09DBB2ED
:10566C00FB60FB68012B03D1124B1B687B6109E0CB
:10567C00FB68022B03D10F4B1B6A7B6102E00D4BC5
:10568C005B6A7B61FB7903F01F03FB607A69FB6843
:10569C0022FA03F303F00103002B02D00123FB7465
:1056AC0001E00023FB74FB7C18461C37BD4680BC14
:1056BC00704700BF0010024080B400AF044B5B6A1F
:1056CC00034A43F08073536200BFBD4680BC7047F1
:1056DC000010024080B485B000AF0346FB7100237C
:1056EC00FB73084B9A68FB791340002B02D0012303
:1056FC00FB7301E00023FB73FB7B18461437BD469C
:10570C0080BC70470010024080B483B000AF0346E9
:10571C00FB71044AFB79137000BF0C37BD4680BC8B
:10572C00704700BF0A100240FFF7FEBF0A480B4942
:10573C000B4A9142BCBF50F8043B41F8043BF8DBE8
:10574C00084809494FF000028842BCBF40F8042BBE
:10575C00FAE7FAF70BFDFEE7EC5700080000002013
:10576C00F4000020F40000200C01002080570008F9
:10577C00080000000000020100010100030001020A
:10578C0001000101000300020201000101000300FD
:10579C0003020100010100030008020100010100E5
:1057AC0003000902010001010003000A02010001CB
:1057BC00010003000B0201000101000300000020A6
:1057CC00A00000200804000000A24A04E803000026
:1057DC0001010101010100010100E8030000640066
:1057EC000000000010270040000100000000000035
:1057FC000000000001000000102700400001000024
:10580C000000000000000000020000001027004013
:10581C000001000000000000000000000300000078
:10582C0010270040000100000000000000000000F4
:10583C00040101001027004000010000ED000008E9
:10584C0001000000050101001027004000010000CC
:10585C000D010008010000000601010010270040A6
:10586C00000100002D0100080100000007010100EB
:10587C0010270040000000000000000001000000A4
:10588C0000001027201C0000000000000400000095
:10589C0001001027201C0000000000000400000084
:1058AC000200FFFF480000000000000004000000A0
:1058BC000300FFFF4800000000000000040000008F
:1058CC00000000000102030401020304060708099A
:0458DC0002040608B4
:04000005080057395F
:00000001FF
