:020000040800F2
:1000000000500020796600087566000875660008D3
:100010007566000875660008756600080000000037
:1000200000000000000000000000000075660008ED
:100030007566000800000000756600087566000817
:100040007566000875660008756600087566000824
:100050007566000875660008756600087566000814
:10006000756600087566000875660008910200084C
:1000700075660008756600087566000875660008F4
:10008000756600087566000831020008756600088C
:1000900075660008756600087566000875660008D4
:1000A00075660008756600087566000875660008C4
:1000B00075660008756600087566000875660008B4
:1000C00075660008756600087566000875660008A4
:1000D0007566000875660008756600087566000894
:0C00E0007566000875660008756600086B
:1000EC0080B500AF044B9B685B780449184600F060
:1000FC006FFC00BF80BD00BF5C670008440200209D
:10010C0080B500AF044B9B6828335B7803491846D5
:10011C0000F05EFC00BF80BD5C6700085802002048
:10012C0080B500AF044B9B6850335B78034918468D
:10013C0000F04EFC00BF80BD5C6700086C02002024
:10014C0080B582B000AF0346FB8000214FF08040A9
:10015C0005F070F800BF4FF0804005F07CF90346C5
:10016C001A46FB889342F6D800BF00BF0837BD463D
:10017C0080BD80B500AF00F035F8184800F0FBF9F1
:10018C00174800F0E7FA164B9B685A78144B9B689B
:10019C009B691946104600F055FB114B9B682833A0
:1001AC005A780F4B9B6828339B691946104600F010
:1001BC0049FB0B4B9B685B78184600F09BFB084B8C
:1001CC009B6828335B78184600F094FB00F0A0FD88
:1001DC004FF4FA70FFF7B4FF00BFF7E7B8660008FA
:1001EC005C67000880B584B000AF0121012005F0E8
:1001FC0043FF00237B810023FB804FF6FF733B8181
:10020C0041F63F73BB803B1D19464FF0804003F015
:10021C00C7FD01214FF0804004F087F900BF103773
:10022C00BD4680BD80B500AF134B1B680133124A2D
:10023C0013604FF40871114803F05CFC0346002B6B
:10024C0008D00E4802F079FC4FF408710B4803F00B
:10025C007BFC0FE04FF40871094803F04BFC03469C
:10026C00002B07D0054802F068FC4FF408710448D5
:10027C0003F06AFC00BF80BDD403002000240140C1
:10028C000028014080B500AF094B1B680133084AB8
:10029C001360022006F0A6F90346002B05D0054892
:1002AC0002F062FC022006F0C5F900BF80BD00BF61
:1002BC00D80300200800024080B584B000AF7860FD
:1002CC000B467B807B681B78002B13D07B681B78DC
:1002DC00012B0DD07B681B78022B07D07B681B7819
:1002EC00032B01D13D4B06E0002304E03C4B02E024
:1002FC003C4B00E03C4BFB607B883B817B681B7A72
:10030C00BB727B681B79012B08D17B68DB79012BD5
:10031C0001D1102300E01423FB720FE07B68DB7922
:10032C00012B02D14823FB7208E07B68DB79022B9E
:10033C0002D12823FB7201E00423FB7207F10803AE
:10034C001946F86802F0A8FC7B681B79012B40D198
:10035C007B689B79012B1ED17B681B78002B13D0FB
:10036C007B681B78012B0DD07B681B78022B07D088
:10037C007B681B78032B01D1184B06E0002304E0AB
:10038C00174B02E0174B00E0174B7A8811461846C2
:10039C0002F09BFD1DE07B681B78002B13D07B6863
:1003AC001B78012B0DD07B681B78022B07D07B6848
:1003BC001B78032B01D1094B06E0002304E0084B0A
:1003CC0002E0084B00E0084B7A881146184602F010
:1003DC008AFD00BF1037BD4680BD00BF0014014030
:1003EC0000100140000C01400008014080B584B0B1
:1003FC0000AF78600B467B807B681B78002B13D09A
:10040C007B681B78012B0DD07B681B78022B07D0E7
:10041C007B681B78032B01D10D4B06E0002304E015
:10042C000C4B02E00C4B00E00C4BFB607B883B81DF
:10043C007B681B7ABB720023FB7207F10803194619
:10044C00F86802F029FC00BF1037BD4680BD00BF24
:10045C000014014000100140000C01400008014054
:10046C0080B584B000AF78600B467B807B681B78CE
:10047C00002B13D07B681B78012B0DD07B681B786D
:10048C00022B07D07B681B78032B01D10D4B06E0A8
:10049C00002304E00C4B02E00C4B00E00C4BFB6027
:1004AC007B883B817B681B7ABB721823FB7207F13C
:1004BC0008031946F86802F0EFFB00BF1037BD4681
:1004CC0080BD00BF0014014000100140000C014031
:1004DC000008014080B584B000AF78607B685B7821
:1004EC001A4601239340FB817B681B78032B3CD875
:1004FC0001A252F823F000BF150500081F050008E3
:10050C0029050008330500080121042005F096FD9B
:10051C000EE00121082005F091FD09E001211020D9
:10052C0005F08CFD04E00121202005F087FD00BFC3
:10053C007B689B78022B12D0022B18DC002B02D08C
:10054C00012B06D013E0FB8919467868FFF7B4FE3F
:10055C000EE0FB8919467868FFF748FF08E0FB8935
:10056C0019467868FFF77CFF02E000BF00E000BF8F
:10057C001037BD4680BD80B584B000AF78607B6815
:10058C00002B1BD00023FB810CE07B681968FA89D7
:10059C001346DB0013440B441846FFF79BFFFB8903
:1005AC000133FB817B689B88FA899A42EDD3054A1B
:1005BC007B681360044B01221A7000E000BF1037F7
:1005CC00BD4680BDE0030020DC03002080B584B074
:1005DC0000AF03460A46FB711346BB71164B1B78E2
:1005EC00002B21D0FB799AB2144B1B689B889A4242
:1005FC001CD2124B1B681968FA791346DB001344A2
:10060C000B445B79002B13D00C4B1B681968FA79DF
:10061C001346DB0013440B44FB60FB68BA791A7178
:10062C00F868FFF757FF04E000BF02E000BF00E0EE
:10063C0000BF1037BD4680BDDC030020E003002066
:10064C0080B582B000AF154B1B78002B22D0002355
:10065C00FB8018E0124B1B681968FA881346DB0004
:10066C0013440B445B79002B0AD10D4B1B681968A2
:10067C00FA881346DB0013440B441846FFF72AFF95
:10068C00FB880133FB80064B1B689B88FA889A42D7
:10069C00E0D300E000BF0837BD4680BDDC0300207E
:1006AC00E003002080B483B000AF78607B68002B3F
:1006BC0010D07B6840F2D2421A807B6851225A805B
:1006CC007B6801221A717B6800225A717B680022B8
:1006DC009A7100E000BF0C37BD4680BC704780B5F6
:1006EC0084B000AF03460A46FB711346BB71164B30
:1006FC001B78002B1FD0FB799AB2144B1B689B887C
:10070C009A421AD2114B1B681968FA791346DB000E
:10071C0013440B44DB78002B11D0FA791346DB0021
:10072C0013440B4A1344FB60FB68BA799A70F8685F
:10073C00FFF7D0FE04E000BF02E000BF00E000BF06
:10074C001037BD4680BD00BFDC030020E003002055
:10075C00C066000880B584B000AF7860154B1B787C
:10076C00002B21D17B68002B20D0134A7B681360AF
:10077C0000F017FB0023FB730DE0FB7B184600F029
:10078C00FBFB0346002B03D00A4B00221A700EE031
:10079C00FB7B0133FB737B681B79FA7B9A42ECD3AE
:1007AC00044B01221A7002E000BF00E000BF1037BA
:1007BC00BD4680BDE4030020E803002080B582B074
:1007CC0000AF012000F0B2FA0346002B2FD100231A
:1007DC00FB7110E0FB79184600F0B8FF0346002BC4
:1007EC0006D0FB79184600F0B1FF0346032B20D14D
:1007FC00FB790133FB71FB79092BEBD90023BB711E
:10080C0006E0BB79184600F011FCBB790133BB71D3
:10081C000A4B1B681B79BA799A42F2D300F0E3FABF
:10082C00074B00221A70054B00221A6002E000BF31
:10083C0000E000BF0837BD4680BD00BFE8030020C4
:10084C00E403002080B584B000AF03463960FB712F
:10085C000C2000F06BFA0346002B01D0012343E07F
:10086C00FB790C21184600F075FA0346002B01D0D9
:10087C00012339E00C21386800F082FA0346002B82
:10088C0001D0012330E0FB79184600F05FFF0346EE
:10089C00002B12D0012327E0FA79154913469B004F
:1008AC001344DB000B4418331A68FB895B001344B8
:1008BC0000221A80FB890133FB81FA790C4913461B
:1008CC009B001344DB000B441C331B88FA899A42AF
:1008DC00E2D3FA79064913469B001344DB000B4420
:1008EC001E3301221A70002318461037BD4680BDF6
:1008FC001800002080B584B000AF0346FB710220C5
:10090C0000F014FAFB790221184600F023FAFB7967
:10091C00184600F06EFA0346002B1DD1FA791346E7
:10092C009B001344DB000F4A1344FB60FB681B78ED
:10093C00FB72FB685B7B012B10D0FA79FB7A1146BA
:10094C00184600F00BFC0346002B08D1FB79012163
:10095C00184600F0DBFA02E000BF00E000BF1037E1
:10096C00BD4680BD1800002080B584B000AF0346A2
:10097C00FB71032000F0DAF9FB790321184600F033
:10098C00E9F9FB79184600F061FA0346002B19D1FE
:10099C00FA7913469B001344DB000C4A1344FB60AA
:1009AC00FB681B78FB72FA79FB7A1146184600F04B
:1009BC00B5FC0346002B06D1FB790021184600F04C
:1009CC00A5FA00E000BF1037BD4680BD180000201E
:1009DC0080B584B000AF03463960FB71042000F091
:1009EC00A5F90346002B01D001233DE0FB7904213E
:1009FC00184600F0AFF90346002B01D0012333E079
:100A0C000421386800F0BCF90346002B01D0012307
:100A1C002AE0FB79184600F0F9F80346002B06D0C3
:100A2C00FB79184600F0F2F80346012B01D10123A3
:100A3C001AE0FA7913469B001344DB000C4A13446A
:100A4C00FB60FB681B78FB72F979FB7A3A681846F5
:100A5C0000F01DFE0346012B01D1012304E0FB79BC
:100A6C00184600F01DFA002318461037BD4680BD0D
:100A7C001800002080B584B000AF0346FB71052040
:100A8C0000F054F9FB790521184600F063F91A4B74
:100A9C001B689968FA7913469B001344DB000B44DE
:100AAC00FB60FB685B7B002B20D0FB79184600F0C9
:100ABC004DFE0346002B1BD10F4B1B689968FA792E
:100ACC0013469B001344DB000B441B78FB72FA7932
:100ADC00FB7A1146184600F077FC0346002B08D130
:100AEC00FB790121184600F011FA02E000BF00E08A
:100AFC0000BF1037BD4680BDE803002080B584B030
:100B0C0000AF0346FB71062000F010F9FB790621BB
:100B1C00184600F01FF9164B1B689968FA791346B2
:100B2C009B001344DB000B44FB60FB685B7B002BDE
:100B3C0019D00F4B1B689968FA7913469B00134424
:100B4C00DB000B441B78FB72FA79FB7A11461846D2
:100B5C0000F0BEFC0346002B06D1FB7900211846A1
:100B6C0000F0D4F900E000BF1037BD4680BD00BFD7
:100B7C00E803002080B584B000AF0346FB7107206A
:100B8C0000F0D4F8FB790721184600F0E3F80E4B7F
:100B9C001B689968FA7913469B001344DB000B44DD
:100BAC00FB60FB681B6A002B0AD0FA7907491346D5
:100BBC009B001344DB000B44243301221A7000E029
:100BCC0000BF1037BD4680BDE80300201800002090
:100BDC0080B582B000AF0346FB71082000F0A6F888
:100BEC00FB790821184600F0B5F8FA790649134646
:100BFC009B001344DB000B44243300221A7000BF0B
:100C0C000837BD4680BD00BF1800002080B483B0FB
:100C1C0000AF0346FB71FA79064913469B00134457
:100C2C00DB000B4406331B7818460C37BD4680BCE2
:100C3C00704700BF1800002080B584B000AF034699
:100C4C003960FB710B2000F071F80346002B01D0CA
:100C5C0000233BE0FB790B21184600F07BF80346A0
:100C6C00002B01D0002331E00B21386800F088F80C
:100C7C000346002B01D0002328E0164B1B68996813
:100C8C00FA7913469B001344DB000B44FB60FB68B2
:100C9C00DB78012B01D0002318E0FB79184600F01B
:100CAC0033FE0346FB72FB681B7BBB72FB689A69C5
:100CBC00FB7A013BB97A01FB03F35B001A443B68F6
:100CCC001A60FB79184600F0EBF8FB7A18461037DF
:100CDC00BD4680BDE803002080B483B000AF7860CF
:100CEC007B68002B0FD07B6801221A807B6837222F
:100CFC005A807B6802221A717B6802225A717B68C7
:100D0C0000229A7100E000BF0C37BD4680BC7047D2
:100D1C0080B500AF044B1B78012B02D101F0A6FA71
:100D2C0000E000BF80BD00BFE403002080B483B0AE
:100D3C0000AF0346FB71064B1B78002B01D101233E
:100D4C0000E0002318460C37BD4680BC704700BF3E
:100D5C00E403002080B582B000AF03460A46FB7165
:100D6C001346BB71FB79184601F056FB0346002B6A
:100D7C0001D1012300E0002318460837BD4680BD91
:100D8C0080B483B000AF78600B46FB707B68002B9F
:100D9C0001D1012300E0002318460C37BD4680BC6E
:100DAC00704780B582B000AF0023FB7106E0FB7981
:100DBC00184600F005FDFB790133FB71FB79092B1B
:100DCC00F5D90023BB7106E0BB79184600F02AFD6B
:100DDC00BB790133BB71BB79012BF5D900BF00BFC7
:100DEC000837BD4680BD80B500AFFFF7DAFF00BF06
:100DFC0080BD80B584B000AF0346FB71FA79134611
:100E0C009B001344DB00104A1344FB60FB7918462B
:100E1C0000F09CFC0346002B01D0012310E0FB6882
:100E2C009B69002B03D0FB689B7F002B01D1012316
:100E3C0006E0FB685B7B002B01D0012300E0002364
:100E4C0018461037BD4680BD1800002080B584B010
:100E5C0000AF0346FB71FA7913469B001344DB0089
:100E6C000E4A1344FB60FB79184600F06FFC0346F6
:100E7C00002B06D0FB79184600F068FC0346032BC8
:100E8C0001D1012306E0FB685B7B002B01D0012321
:100E9C0000E0002318461037BD4680BD1800002026
:100EAC0080B584B000AF0346FB71FA7913469B0002
:100EBC001344DB00144A1344FB60FB68DB78012B02
:100ECC000FD1FB681B7D012B05D1FB790121184645
:100EDC0000F01CF814E0FB790021184600F016F81D
:100EEC000EE0FB681B79012B05D1FB79012118461B
:100EFC0000F00CF804E0FB790021184600F006F82D
:100F0C0000BF1037BD4680BD1800002080B582B0F0
:100F1C0000AF03460A46FB711346BB71FB790021F7
:100F2C00184600F02DFC00BF0837BD4680BD00BF41
:100F3C0080B483B000AF0346FB7197F90730002BE8
:100F4C0012DBFB7903F01F020A4997F907305B09A2
:100F5C00012000FA02F2203341F82320BFF34F8F17
:100F6C0000BFBFF36F8F00BF00BF0C37BD4680BC06
:100F7C00704700BF00E100E080B584B000AF0346CD
:100F8C00FB71FB79184601F037FA0346002B01D1AF
:100F9C00012341E0FB79002B06D0FB79012B01D119
:100FAC001F4B02E0002300E01E4BFB60FB68002B94
:100FBC0001D1012330E0FB79184601F061FB0346B7
:100FCC00002B01D0012327E0FB79184601F044FAED
:100FDC000346002B01D001231EE0FB79184601F0DB
:100FEC006DFB0346002B01D0012315E0FB790E4A63
:100FFC009B001344DB78002B09D0FB7900211846A9
:10100C0001F07CFB0346002B01D0012304E0FB79AB
:10101C00184600F007FC002318461037BD4680BD6B
:10102C000028014000240140A801002080B584B0B4
:10103C0000AF0346FB71FB79184601F0DDF903465E
:10104C00002B01D1012330E0FB79002B06D0FB797A
:10105C00012B01D1174B02E0002300E0164BFB6083
:10106C00FB68002B01D101231FE00021F86802F07E
:10107C00CCF90021F86802F024F9FB79012118461B
:10108C0000F0E2FCFB790D4A9B001344DB78002B4B
:10109C0003D0FB79184601F09FFBF86802F06AF860
:1010AC00FB79184600F0BEFB002318461037BD46EE
:1010BC0080BD00BF0028014000240140A801002091
:1010CC0080B586B000AF03460A46FB711346BB7170
:1010DC00FB79002B06D0FB79012B01D11B4B02E0D5
:1010EC00002300E01A4B7B617B69002B01D10123AB
:1010FC0027E0FB799B00174A13443B61BA791346EE
:10110C009B001344DB00144A1344FB60BA79FB794F
:10111C001146184601F0D2F9FA683969786900F07D
:10112C007DFA0346002B01D001230AE0FB685B7BB0
:10113C00012B05D101224FF40871786902F0F7F800
:10114C00002318461837BD4680BD00BF002801405B
:10115C0000240140A80100201800002080B586B0B2
:10116C0000AF03460A46FB711346BB71FB79184668
:10117C0001F042F90346002B06D0BB79184601F06A
:10118C004BF90346002B01D10123B7E0FB7918463C
:10119C0000F0D4FB0346022B01D10123AEE0FA7917
:1011AC00584913465B0013449B000B441B78DBB27D
:1011BC00BA799A4218D0BA79FB791146184600F0E0
:1011CC0079FD0346012B01D1012397E0FA794D49B2
:1011DC0013465B0013449B000B440B331B78DBB2B0
:1011EC00012B01D9012389E0FB79002B06D0FB7977
:1011FC00012B01D1444B02E0002300E0434B7B6107
:10120C00BA7913469B001344DB00414A13443B61FB
:10121C00FB799B003F4A1344FB607B69002B01D197
:10122C0001236BE0BA79FB7911461846FFF748FFAA
:10123C000346002B01D0012360E0FA7931491346B3
:10124C005B0013449B000B44BA791A70FA792D4950
:10125C0013465B0013449B000B44013301221A70AC
:10126C00BB790121184600F08BFABB792A4ADB00C6
:10127C00134400225A70BB79274ADB001344002226
:10128C009A70BB79244ADB00134400229A803B6994
:10129C0093F82530012B05D1FB790121184600F07C
:1012AC0087FB22E0FB68DB78002B19D0BA79FB793D
:1012BC001146184601F022FA0346002B01D00123F7
:1012CC001CE0FB790121184600F0BEFBFB790221E2
:1012DC00184600F06DFB0121786902F00DF804E06E
:1012EC00FB790121184600F063FB0121786901F0BC
:1012FC00E8FF0121786902F088F8002318461837B6
:10130C00BD4680BD000000200028014000240140A3
:10131C0018000020A8010020FC17002080B584B024
:10132C0000AF03460A46FB711346BB71FB791846A6
:10133C0001F062F80346002B06D0BB79184601F089
:10134C006BF80346002B01D1012333E0FA791B49DA
:10135C0013465B0013449B000B441B78DBB2BA7939
:10136C009A4207D0BA79FB791146184600F036FD3F
:10137C0003461FE0FB79002B06D0FB79012B01D132
:10138C000F4B02E0002300E00E4BFB60FB68002BD0
:10139C0001D101230EE00021F86802F036F800219B
:1013AC00F86801F08EFFBA79FB791146184600F007
:1013BC0015FD034618461037BD4680BD00000020C1
:1013CC00002801400024014080B584B000AF0346E2
:1013DC000A46FB711346BB71FB79184601F00CF8F9
:1013EC000346002B06D0BB79184601F015F80346CE
:1013FC00002B01D101235EE0FB79002B06D0FB7999
:10140C00012B01D12E4B02E0002300E02D4BFB60A1
:10141C00FB68002B01D101234DE0BA79FB79114611
:10142C001846FFF74DFE0346002B01D0012342E086
:10143C00FB79184600F082FA0346022B01D10123F6
:10144C0039E0FB790221184600F0FEFA0021F86819
:10145C0001F037FFBA7913469B001344DB001A4A9C
:10146C001344BB600121F86802F006F9BB689B7B52
:10147C00002BFA79154913465B0013449B000B446F
:10148C00BA791A70FA79114913465B0013449B0020
:10149C000B44013302221A70BB790121184600F06B
:1014AC006FF9FB790121184600F082FA0121F868E6
:1014BC0001F007FF002318461037BD4680BD00BF62
:1014CC0000280140002401401800002000000020EA
:1014DC0080B584B000AF03460A46FB711346BB715E
:1014EC00FB79184600F088FF0346002B06D0BB7929
:1014FC00184600F091FF0346002B01D1012336E082
:10150C00FB79002B06D0FB79012B01D11A4B02E0A1
:10151C00002300E0194BFB60FB68002B01D1012379
:10152C0025E00021F86802F0A7F8FB7901211846A4
:10153C0000F08AFAFA79124913465B0013449B00B7
:10154C000B44FF221A70FA790D4913465B001344C1
:10155C009B000B44013300221A70BB790021184602
:10156C0000F00EF9FB79184600F00CF80023184631
:10157C001037BD4680BD00BF00280140002401404B
:10158C000000002080B584B000AF0346FB71FA79EF
:10159C00214913465B0013449B000B440B331B780F
:1015AC00DBB2002B01D1012332E0FA791A49134640
:1015BC005B0013449B000B44013301221A70FA792F
:1015CC00154913465B0013449B000B440433196804
:1015DC00FA79114813465B0013449B00034409330A
:1015EC001B78DBB20B441B78FB73FB7BFF2B0ED001
:1015FC00FA79094913465B0013449B000B44FA7BB0
:10160C001A70FA7BFB7911461846FFF7A7FD0023E9
:10161C0018461037BD4680BD0000002080B588B04C
:10162C0000AFF860B9607A607B6893F82530012BC5
:10163C000CD17B689B687B617B6919787B695B68E3
:10164C00DBB20122F86801F04EFF1BE00023FB77B0
:10165C0013E07B689A68FB7FDB001344BB61BB69BA
:10166C001978FB7F0133DAB2BB695B68DBB2F868CF
:10167C0001F039FFFB7F0133FB777B681B7BFA7F23
:10168C009A42E6D3002318462037BD4680BD80B56C
:10169C0084B000AF03463A60FB710B46BB71FB791B
:1016AC00184600F0A9FE0346002B09D0BB7918465A
:1016BC0000F0B2FE0346002B02D03B68002B01D198
:1016CC0001233BE0BA7913469B001344DB001D4A0F
:1016DC001344BB60BB791C4A12F83330DBB2022BCB
:1016EC0008D0BB79184A12F83330DBB2032B01D087
:1016FC00012323E0BB681B7BFB81BB68DB78012BE0
:10170C0006D1BB685B7D1A46FB8902FB03F3FB81A8
:10171C000023BB810DE0BB689A69BB895B001A444E
:10172C00BB895B0039680B4412881A80BB89013372
:10173C00BB81BA89FB899A42EDD300231846103736
:10174C00BD4680BD18000020FC17002080B582B07B
:10175C0000AF0346FB71FB79184600F05DFE0346B3
:10176C00002B01D1002304E0FB79044A12F833303A
:10177C00DBB218460837BD4680BD00BFFC17002001
:10178C0080B483B000AF03460A46FB711346BB71AD
:10179C00FA79094913469B001344DB000B440633CA
:1017AC00BA791A70FB790549BA7901F8332000BF70
:1017BC000C37BD4680BC704718000020FC17002079
:1017CC0080B582B000AF0346FB71FB79184600F080
:1017DC0023FE0346002B01D101231DE0FB790021E0
:1017EC001846FFF7CDFFFB790D4ADB0013440022AE
:1017FC005A70FB790A4ADB00134400229A70FB7979
:10180C00074ADB00134400229A80FB79044ADB0070
:10181C00134400229A71002318460837BD4680BD38
:10182C00FC17002080B584B000AF0346FB71FB7938
:10183C00184600F0E1FD0346002B01D101235DE0C9
:10184C00FA79304913465B0013449B000B440B336D
:10185C001B78DBB2002B1FD00023FB730FE0FA794F
:10186C00284913465B0013449B000B4404331A684D
:10187C00FB7B134400221A70FB7B0133FB73FA7958
:10188C00204913465B0013449B000B4408331B7820
:10189C00DBB2FA7B9A42E2D3FA791A4913465B001F
:1018AC0013449B000B44093300221A70FA79154932
:1018BC0013465B0013449B000B440A3300221A703E
:1018CC00FA79104913465B0013449B000B440B330D
:1018DC0000221A70FA790B4913465B0013449B00E3
:1018EC000B44FF221A70FA79064913465B00134425
:1018FC009B000B44013300221A700023184610374A
:10190C00BD4680BD0000002080B582B000AF03460C
:10191C00FB71FB79184600F07FFD0346002B01D1CB
:10192C00002305E0FB79044ADB0013449B78DBB20F
:10193C0018460837BD4680BDFC17002080B483B024
:10194C0000AF0346FB71FA79064913465B0013445A
:10195C009B000B4401331B78DBB218460C37BD4699
:10196C0080BC70470000002080B582B000AF0346F9
:10197C000A46FB711346BB71FB79184600F03CFD1F
:10198C000346002B06D0BB79184600F045FD0346F4
:10199C00002B01D1FF2305E0BB79044ADB00134483
:1019AC005B78DBB218460837BD4680BDFC170020BB
:1019BC0080B584B000AF03460A46FB711346BB7179
:1019CC00FB79184600F018FD0346002B01D10123CA
:1019DC0030E0FB79002B06D0FB79012B01D1174BA2
:1019EC0002E0002300E0164BFB60FB68002B01D1EA
:1019FC0001231FE0BB7903F00103002B05D001226A
:101A0C004FF40871F86801F092FCBB7903F0020303
:101A1C00002B0ED0FB79002B01D10A4B00E00023E8
:101A2C00BB60BB68002B04D001220221B86804F013
:101A3C005FFD002318461037BD4680BD00280140CD
:101A4C00002401400800024080B584B000AF03467A
:101A5C000A46FB711346BB71FB79184600F0CCFCAF
:101A6C000346002B01D1012336E0FB79002B06D075
:101A7C00FB79012B01D11A4B02E0002300E0194B3A
:101A8C00FB60FB68002B01D1012325E0BB7903F03F
:101A9C000103002B08D000224FF40871F86801F004
:101AAC0046FC1220FFF744FABB7903F00203002B2B
:101ABC0011D0FB79002B01D10B4B00E00023BB6054
:101ACC00BB68002B07D000220221B86804F010FD7F
:101ADC000B20FFF72DFA002318461037BD4680BDAA
:101AEC0000280140002401400800024080B586B067
:101AFC0000AF78600B46FB70FB78184600F07CFC5E
:101B0C000346002B2CD0FA78184913465B0013447B
:101B1C009B000B441B78FB75FB7DFF2B22D0786858
:101B2C0001F0C5FD0346BB82FB7D114ADB0013446B
:101B3C009B887B82FA7D13469B001344DB000D4A85
:101B4C001344FB60FB689A697B8A5B001344BA8A76
:101B5C001A80FA7DFB781146184600F06FFE02E001
:101B6C0000BF00E000BF1837BD4680BD000000205C
:101B7C00FC1700201800002080B584B000AF7860FE
:101B8C000B46FB70FB78184600F036FC0346002B26
:101B9C007CD0FA783F4913465B0013449B000B44FE
:101BAC001B78FB73FA7B13469B001344DB003A4A09
:101BBC001344BB60FB7BBA68517D384ADB0013448D
:101BCC000A469A70BB681A7BFB7B013AD1B2334A46
:101BDC00DB0013440A465A70BB685B7D1A46BB682F
:101BEC001B7B02FB03F39AB2FB7B013A91B22B4AAB
:101BFC00DB0013440A469A80BB6803229A71FB7B74
:101C0C00264A032102F83310FB7B184600F024FF10
:101C1C00BB681B79012B21D1FB7B204ADB001344D1
:101C2C0000229A70FB7B1D4ADB00134400225A7081
:101C3C00FB7B1A4ADB00134400229A80FB78002BB2
:101C4C0006D0FB78012B01D1154B02E0002300E0FC
:101C5C00144B0121184601F0D8FB18E0FB78124A0E
:101C6C000121D154114B1B78DBB2012B0FD80F4B38
:101C7C001B78DBB219460E4AFB7853540B4B1B787E
:101C8C00DBB20133DAB2094B1A7000E000BF103737
:101C9C00BD4680BD0000002018000020FC1700206D
:101CAC0000280140002401404C180020521800204C
:101CBC005018002090B583B000AF03460A46FB7164
:101CCC001346BB71FA79444913465B0013449B00DD
:101CDC000B440B331B78D9B2FA793F4813465B009F
:101CEC0013449B00034408331B78DBB2994208D39E
:101CFC00BA79FB791146184600F006FA0346FF2B19
:101D0C0064D1FA79344913465B0013449B000B44AD
:101D1C000B331B78DBB20133D8B22F4913465B006F
:101D2C0013449B000B440B3302461A70FA792A4970
:101D3C0013465B0013449B000B440B331B78DBB244
:101D4C00012B1FD1FA79244913465B0013449B00E5
:101D5C000B4404331968FA791F4813465B0013448B
:101D6C009B0003440A331B78DBB20B44BA791A701C
:101D7C00FA79194913465B0013449B000B44BA795A
:101D8C001A7021E0FA79144913465B0013449B0046
:101D9C000B4404331968FA790F4813465B0013445B
:101DAC009B0003440A331B78DBB20133DCB20A48D4
:101DBC0013465B0013449B0003440A3322461A70FB
:101DCC0023460B44BA791A70002300E0012318460D
:101DDC000C37BD4690BD00BF0000002090B585B00B
:101DEC0000AF03460A46FB711346BB71BA79FB7907
:101DFC001146184600F088F90346FB73FB7BFF2B5A
:101E0C0000F02B81FA79974913465B0013449B0031
:101E1C000B4409331B78DBB2FA7B9A423FD1FA7937
:101E2C00904913465B0013449B000B4404331A681F
:101E3C00FB7B134400221A70FB7B0133FB73FA7992
:101E4C00884913465B0013449B000B4408331B78F2
:101E5C00DBB2FA7B9A4201D0F97B00E00021FA79DF
:101E6C00804813465B0013449B00034409330A4625
:101E7C001A70FA797B4913465B0013449B000B44A0
:101E8C0004331A68FB7B1344FA79187875491346A6
:101E9C005B0013449B000B4402461A70C8E0FA79AD
:101EAC00704913465B0013449B000B440A331B78A8
:101EBC00DBB2FA7B9A422AD1FA796A4913465B0063
:101ECC0013449B000B4404331A68FB7B134400221D
:101EDC001A70FB7B013BFB73FB7B002B0CD1FA795B
:101EEC00604913465B0013449B000B4408331B787A
:101EFC00DBB2013BDAB200E0FA7BF97959480B46C8
:101F0C005B000B449B0003440A331A7090E0FA798F
:101F1C00544913465B0013449B000B440A331B7853
:101F2C00DBB2FA7B9A426BD9FB7BBB731BE0FA7971
:101F3C004C4913465B0013449B000B4404331A6852
:101F4C00BB7B0133D118FA79464813465B00134426
:101F5C009B00034404331A68BB7B13440A781A7041
:101F6C00BB7B0133BB73B97BFA793E4813465B00EC
:101F7C0013449B00034408331B78DBB2013B9942AA
:101F8C00D5DBFA79374913465B0013449B000B44AD
:101F9C0004331968FA79334813465B0013449B00E9
:101FAC00034404331868FA792E4C13465B0013442F
:101FBC009B00234408331B78DBB2013B03440A78B3
:101FCC001A700023FB731BE0FA79264913465B0059
:101FDC0013449B000B4404331A68FB7B0133D11868
:101FEC00FA79204813465B0013449B0003440433E6
:101FFC001A68FB7B13440A781A70FB7B0133FB7362
:10200C00F97BFA79174813465B0013449B00034491
:10201C000A331B78DBB2013B9942D5DBFA791149C3
:10202C0013465B0013449B000B440A33FA7B1A7073
:10203C00FA790C4913465B0013449B000B440B3399
:10204C001B78DBB2013BD8B2064913465B00134444
:10205C009B000B440B3302461A70012318461437AD
:10206C00BD4690BD0000002080B485B000AF034693
:10207C00FB71FF23FB73FA79224913465B0013446F
:10208C009B000B440B331B78DBB2012B33D9FA7951
:10209C001C4913465B0013449B000B4409331B780B
:1020AC00BB73BB7B0133BB73B97BFA791548134601
:1020BC005B0013449B00034408331B78DBB2013BE9
:1020CC0099420BD1FA790F4913465B0013449B00DC
:1020DC000B4404331B681B78FB730CE0FA79094939
:1020EC0013465B0013449B000B4404331A68BB7B00
:1020FC0013441B78FB73FB7B18461437BD4680BC1E
:10210C00704700BF0000002080B485B000AF0346CC
:10211C000A46FB711346BB71FA794C4913465B00B6
:10212C0013449B000B4409331B78D9B2FA79474806
:10213C0013465B0013449B0003440A331B78DBB249
:10214C00994250D9FA79414913465B0013449B00DC
:10215C000B4409331B78FB7313E0FA793B491346A4
:10216C005B0013449B000B4404331A68FB7B134441
:10217C001B78BA799A4201D1FB7B61E0FB7B01337E
:10218C00FB73FA79314913465B0013449B000B44F3
:10219C0008331B78DBB2FA7B9A42DED30023BB7385
:1021AC0013E0FA79294913465B0013449B000B4456
:1021BC0004331A68BB7B13441B78BA799A4201D159
:1021CC00BB7B3DE0BB7B0133BB73FA791F491346E4
:1021DC005B0013449B000B440A331B78DBB2BA7BC5
:1021EC009A42DED92BE0FA79184913465B00134466
:1021FC009B000B4409331B787B7313E0FA7913496A
:10220C0013465B0013449B000B4404331A687B7B1E
:10221C0013441B78BA799A4201D17B7B10E07B7B0B
:10222C0001337B73FA79094913465B0013449B0015
:10223C000B440A331B78DBB27A7B9A42DED9FF233C
:10224C0018461437BD4680BC704700BF0000002004
:10225C0080B582B000AF0346FB71FB791846FFF7DF
:10226C00E1FA034618460837BD4680BD80B582B0FA
:10227C0000AF0023FB7118E0FB79124AD35CBB71F1
:10228C00BB79114AD35CDBB2002B0BD072B600BF0A
:10229C00BB790D4A0021D15462B600BFBB791846F8
:1022AC0000F016F8FB790133FB71084B1B78DBB29D
:1022BC00FA799A42E0D3054B00221A7000BF083716
:1022CC00BD4680BD501800204C180020521800202C
:1022DC0080B584B000AF0346FB71FA791E491346F2
:1022EC005B0013449B000B441B78FB73FB7BFF2BA5
:1022FC002DD0FA79184913465B0013449B000B440C
:10230C00FF221A70FB791846FFF718FB0346022BC5
:10231C0004D1FB791846FFF735F919E0FB7918461B
:10232C00FFF7A2FE0346BB73BB7BFF2B10D0FA79E1
:10233C00094913465B0013449B000B44FA7B1A704B
:10234C00BA7BFB7911461846FEF708FF00E000BF88
:10235C001037BD4680BD00BF0000002080B584B0A2
:10236C0000AF03460A46FB711346BB71BA7913469C
:10237C009B001344DB001E4A1344FB60FB68DB78B4
:10238C00012B05D1BB7903211846FFF7F9F904E0BD
:10239C00BB7902211846FFF7F3F9BB79184600F018
:1023AC005BFBFB681B79012B0AD1FB681B7D012BA6
:1023BC0019D1BA79FB791146184600F021FB12E0CD
:1023CC00FA790C4913465B0013449B000B44FF2223
:1023DC001A70FA79074913465B0013449B000B44AF
:1023EC00013300221A7000BF1037BD4680BD00BFFC
:1023FC00180000200000002080B483B000AF03461A
:10240C00FB71FB79012B94BF01230023DBB218462F
:10241C000C37BD4680BC704780B483B000AF034618
:10242C00FB71FB79092B94BF01230023DBB2184607
:10243C000C37BD4680BC704780B483B000AF0346F8
:10244C00FB71FB790F2B94BF01230023DBB21846E1
:10245C000C37BD4680BC704780B588B000AF0346D2
:10246C00FB71FB79002B06D0FB79012B01D1114BB1
:10247C0002E0002300E0104BFB61FB69002B01D153
:10248C00012313E00023BB6000233B7300237B7309
:10249C004FF460233B6100237B6101233B7607F102
:1024AC0008031946F86900F09FFE002318462037F0
:1024BC00BD4680BD002801400024014080B584B099
:1024CC0000AF03460A46FB711346BB710123FB7335
:1024DC00FB790E4A9B001344DB78012B08D1BA79A7
:1024EC00FB791146184600F013F80346FB7307E01E
:1024FC00BA79FB791146184600F068F80346FB736D
:10250C00FB7B18461037BD4680BD00BFA8010020DC
:10251C0080B58AB000AF03460A46FB711346BB7107
:10252C00FB79002B06D0FB79012B01D1244B02E067
:10253C00002300E0234B7B62BA7913469B001344C3
:10254C00DB00214A13443B627B6A002B01D101233F
:10255C0031E03B6A1B7B3B773B6A1B7B012B14BF37
:10256C0001230023DBB23B743B6A1B79012B03D0A4
:10257C003B6ADB78012B02D101237B7401E0002341
:10258C007B743B6A5B7B002B03D14FF460237B6134
:10259C0001E000237B613B6ADB79012B01D1002335
:1025AC0001E04FF40063BB6107F10C031946786A34
:1025BC0000F01AFE002318462837BD4680BD00BF28
:1025CC0000280140002401401800002080B58AB08A
:1025DC0000AF03460A46FB711346BB71FB79002B17
:1025EC0006D0FB79012B01D1224B02E0002300E045
:1025FC00214B7B62BA7913469B001344DB001F4AC4
:10260C0013443B627B6A002B01D101232EE0002393
:10261C003B7401233B773B6A1B7B012B0AD13B6A42
:10262C001B79002B06D13B6ADB78002B02D10023EF
:10263C007B7401E001237B743B6A5B7B002B03D131
:10264C004FF460237B6101E000237B613B6ADB7903
:10265C00012B01D1002301E04FF40063BB6107F1B2
:10266C000C031946786A00F0BFFD00231846283782
:10267C00BD4680BD00280140002401401800002008
:10268C0080B582B000AF0346FB71FB79002B05D1FE
:10269C0001214FF4007003F0D1FC0AE0FB79012B0F
:1026AC0005D101214FF4806003F0C8FC01E0012347
:1026BC0000E0002318460837BD4680BD80B584B0C5
:1026CC0000AF0346FB71FB791846FFF795FE0346F6
:1026DC00002B0ED012233B7305237B730023BB739B
:1026EC000123FB7307F10C03184603F01FF90023B9
:1026FC0000E0012318461037BD4680BD80B592B06E
:10270C0000AF03460A46FB711346BB710121012041
:10271C0003F076FCBA7913469B001344DB002A4A7B
:10272C0013447B64FB79002B06D0FB79012B01D180
:10273C00264B02E0002300E0254B3B64FB79002B89
:10274C0001D1244B00E00023FB633B6C4C333B6119
:10275C007B6C9B697B610023BB617B6C9B8BFB61FE
:10276C0000233B6280237B624FF48073BB624FF487
:10277C008063FB627B6C1B7D012B01D1202300E06D
:10278C0000233B634FF400537B630023BB6307F1CF
:10279C0010031946F86B03F027FE0121F86B03F0C8
:1027AC008BFE0B233B7304237B730023BB7301232E
:1027BC00FB7307F10C03184603F0B8F80023184616
:1027CC004837BD4680BD00BF1800002000280140DE
:1027DC00002401400800024080B584B000AF0346DD
:1027EC00FB71FB79002B06D0FB79012B01D1104B2F
:1027FC0002E0002300E00F4BFB60FB79002B01D1C2
:10280C000D4B00E00023BB600021B86803F054FEC0
:10281C000021F86800F070FDB86803F029FD0B206A
:10282C00FEF786FB002318461037BD4680BD00BF5F
:10283C0000280140002401400800024080B584B00B
:10284C0000AF03460A46FB711346BB71BA791346B7
:10285C009B001344DB00454A1344FB60BA7944499E
:10286C00D3000B449B889BB2013398B24049D300F0
:10287C000B4402469A80BB793D4ADB0013445B78DB
:10288C00DBB21A46FB681B7B013B9A4213DABA791E
:10289C003749D3000B445B78DBB20133D8B23449EF
:1028AC00D3000B4402465A70BA79FB79114618468C
:1028BC0000F066F856E0BB79184600F0CDF8BB790D
:1028CC002B4ADB00134400225A70BA792849D300F2
:1028DC000B449B78DBB20133D8B22549D3000B44AF
:1028EC0002469A70BB79224ADB0013449B78DAB219
:1028FC00FB685B7D9A422FD3BB7903211846FEF708
:10290C003FFFFB681B79012B07D0FB68DB78012BA1
:10291C000AD1FB681B7D012B06D1BA79FB791146D4
:10292C00184600F06DF81DE0FB79124A0121D154D4
:10293C00114B1B78DBB2012B14D80F4B1B78DBB27D
:10294C0019460E4AFB7953540B4B1B78DBB20133FF
:10295C00DAB2094B1A7005E0BA79FB7911461846C0
:10296C0000F00EF800BF1037BD4680BD18000020E7
:10297C00FC1700204C180020521800205018002082
:10298C0080B586B000AF03460A46FB711346BB7197
:10299C00FB79002B06D0FB79012B01D1144B02E003
:1029AC00002300E0134B7B61BA7913469B00134460
:1029BC00DB00114A13443B613B699A68BB790F49B0
:1029CC00DB000B445B78DBB2DB001344FB60FB6881
:1029DC001978FB685B68DBB20122786900F083FD33
:1029EC000121786900F011FD00BF1837BD4680BD8C
:1029FC00002801400024014018000020FC17002092
:102A0C0080B582B000AF03460A46FB711346BB711A
:102A1C00BB79104ADB00134400229A80BB790D4A23
:102A2C00DB00134400229A70BB790A4ADB00134482
:102A3C0000225A70BB7901211846FEF7A1FEBA7923
:102A4C00FB7911461846FFF79BFF00BF0837BD46C0
:102A5C0080BD00BFFC17002080B582B000AF0346DC
:102A6C00FB71FA79114913469B001344DB000B44AC
:102A7C0024331B78012B14D1FA790C4913469B0093
:102A8C001344DB000B4420331B68002B09D0FA796C
:102A9C00064913469B001344DB000B4420331B6890
:102AAC00984700BF0837BD4680BD00BF1800002006
:102ABC0080B400AF00231846BD4680BC704700BFF1
:102ACC0080B400AF00BFBD4680BC704780B400AF7F
:102ADC0000BFBD4680BC704780B400AF00BFBD4690
:102AEC0080BC704780B483B000AF03460A46FB71CC
:102AFC001346BB7100BF0C37BD4680BC704780B419
:102B0C0083B000AF0346FB7100BF0C37BD4680BCE1
:102B1C00704780B483B000AF0346FB7100BF0C3725
:102B2C00BD4680BC704780B483B000AF0346FB71D8
:102B3C0000BF0C37BD4680BC704780B584B000AF79
:102B4C0078607B68074A934214BF01230023DBB2F1
:102B5C00FB73FB7B19467868FEF7C8FF00BF103784
:102B6C00BD4680BD0024014080B584B000AF7860C4
:102B7C000023FB73FB7B19467868FEF7FDFF00BF53
:102B8C001037BD4680BD80B483B000AF786039602B
:102B9C0000BF0C37BD4680BC704700BF80B582B00B
:102BAC0000AF78607B682F4A934208D10121042042
:102BBC0003F080FA0021042003F07CFA4EE07B68DD
:102BCC00294A934208D10121082003F073FA00210D
:102BDC00082003F06FFA41E07B68244A934208D145
:102BEC000121102003F066FA0021102003F062FA94
:102BFC0034E07B681E4A934208D10121202003F067
:102C0C0059FA0021202003F055FA27E07B68194A75
:102C1C00934208D10121402003F04CFA00214020BE
:102C2C0003F048FA1AE07B68134A934208D1012159
:102C3C00802003F03FFA0021802003F03BFA0DE0E6
:102C4C007B680E4A934209D101214FF4807003F046
:102C5C0031FA00214FF4807003F02CFA00BF0837D2
:102C6C00BD4680BD00080140000C01400010014031
:102C7C000014014000180140001C014000200140DC
:102C8C0080B500AF0121012003F014FA00210120CE
:102C9C0003F010FA00BF80BD80B489B000AF78603B
:102CAC0039600023FB6100233B610023BB610023DF
:102CBC00FB6000237B610023BB603B68DB7803F087
:102CCC000F03FB613B68DB7803F01003002B05D08E
:102CDC003B689B781A46FB691343FB613B681B8876
:102CEC00DBB2002B44D07B681B687B610023BB618B
:102CFC0038E00122BB6902FA03F3FB603B681B88D6
:102D0C001A46FB6813403B613A69FB689A4226D12C
:102D1C00BB699B00FB600F22FB6802FA03F3BB60EC
:102D2C00BB68DB437A6913407B61FA69FB6802FA82
:102D3C0003F37A6913437B613B68DB78282B05D15D
:102D4C000122BB699A407B685A6108E03B68DB78DA
:102D5C00482B04D10122BB699A407B681A61BB697C
:102D6C000133BB61BB69072BC3D97B687A691A60D5
:102D7C003B681B88FF2B46D97B685B687B61002313
:102D8C00BB613AE0BB690833012202FA03F3FB6032
:102D9C003B681B881A46FB6813403B613A69FB6829
:102DAC009A4227D1BB699B00FB600F22FB6802FA99
:102DBC0003F3BB60BB68DB437A6913407B61FA6940
:102DCC00FB6802FA03F37A6913437B613B68DB7897
:102DDC00282B05D1BB69083301229A407B685A61C4
:102DEC003B68DB78482B05D1BB69083301229A403C
:102DFC007B681A61BB690133BB61BB69072BC1D905
:102E0C007B687A695A6000BF2437BD4680BC704726
:102E1C0080B483B000AF78607B684FF6FF721A8085
:102E2C007B6802229A707B680422DA7000BF0C3730
:102E3C00BD4680BC704780B485B000AF78600B464F
:102E4C007B800023FB737B689A687B881340002B84
:102E5C0002D00123FB7301E00023FB73FB7B1846BC
:102E6C001437BD4680BC704780B483B000AF786027
:102E7C007B689B689BB218460C37BD4680BC70477C
:102E8C0080B485B000AF78600B467B800023FB7369
:102E9C007B68DA687B881340002B02D00123FB731C
:102EAC0001E00023FB73FB7B18461437BD4680BC46
:102EBC00704780B483B000AF78607B68DB689BB2EE
:102ECC0018460C37BD4680BC704780B483B000AF49
:102EDC0078600B467B807A887B681A6100BF0C3760
:102EEC00BD4680BC704780B483B000AF78600B46A1
:102EFC007B807A887B685A6100BF0C37BD4680BCEA
:102F0C00704780B483B000AF78600B467B8013466B
:102F1C007B707B78002B03D07A887B681A6102E087
:102F2C007A887B685A6100BF0C37BD4680BC7047FD
:102F3C0080B483B000AF78600B467B807A887B6866
:102F4C00DA6000BF0C37BD4680BC704780B485B0DA
:102F5C0000AF78600B467B804FF48033FB607B883E
:102F6C00FA681343FB607B68FA689A617A887B681D
:102F7C009A617B68FA689A617B689B69FB607B68E5
:102F8C009B69FB6000BF1437BD4680BC704780B4A2
:102F9C0085B000AF03460A46FB711346BB71002394
:102FAC00FB600C4B1B68FB60FA684FF68073134098
:102FBC00FB60FB791B01FA681343FB60BB79FA6871
:102FCC001343FB60034AFB68136000BF1437BD4614
:102FDC0080BC70470000014080B483B000AF034652
:102FEC00FB71044AFB79136000BF0C37BD4680BCF3
:102FFC00704700BF1C00204280B487B000AF7860DF
:10300C000B46FB7000233B610023FB6000237B61BC
:10301C000023BB607B68002B03DA2E4BDB697B61E2
:10302C0002E02C4B5B687B617B681B0C03F00F038D
:10303C00BB607B689BB23B617B6803F44013B3F5C8
:10304C00401F0AD17B6923F070637B61214B5B6865
:10305C00204A23F07063536021E07B6803F48013F3
:10306C00002B0ED00322BB6802FA03F3FB60FB6853
:10307C00DB437A6913407B617B6943F070637B614E
:10308C000DE07B685B0D1B013A6902FA03F3DB432D
:10309C007A6913407B617B6943F070637B61FB78D9
:1030AC00002B08D07B685B0D1B013A6902FA03F315
:1030BC007A6913437B617B68002B03DA054A7B69D1
:1030CC00D36102E0034A7B69536000BF1C37BD46E5
:1030DC0080BC70470000014080B485B000AF03464F
:1030EC000A46FB711346BB710023FB60BB7903F0EE
:1030FC0003039B000F2202FA03F3FB60154ABB7912
:10310C009B08DBB2023352F82320FB68DB431148E7
:10311C00B9798908C9B21A408B1C40F823200D4A92
:10312C00BB799B08DBB2023352F82320F979BB79C7
:10313C0003F003039B0001FA03F30648B9798908ED
:10314C00C9B21A438B1C40F8232000BF1437BD466C
:10315C0080BC70470000014080B483B000AF786041
:10316C00034A7B68136000BF0C37BD4680BC7047B8
:10317C00DC00204280B582B000AF78607B68174AD3
:10318C0093420AD101214FF4007002F093FF002109
:10319C004FF4007002F08EFF1CE07B68104A9342E3
:1031AC000AD101214FF4806002F084FF00214FF41A
:1031BC00806002F07FFF0DE07B680A4A934209D1E0
:1031CC0001214FF4004002F075FF00214FF4004044
:1031DC0002F070FF00BF0837BD4680BD00240140DF
:1031EC0000280140003C014080B485B000AF7860FD
:1031FC0039600023FB600023FB727B685B68FB601B
:10320C00FB6823F4702323F48073FB603B681A681B
:10321C003B681B791B021343FA681343FB607B6802
:10322C00FA685A607B689B68FB60FA68164B13401F
:10323C00FB603B68DA683B689B681A433B685B79C8
:10324C005B001343FA681343FB607B68FA689A606F
:10325C007B68DB6AFB60FB6823F47003FB603B68F4
:10326C001B7C013BDAB2FB7A1343FB72FB7A1B0526
:10327C00FA681343FB607B68FA68DA6200BF1437A4
:10328C00BD4680BC704700BFFDF7F1FF80B483B032
:10329C0000AF78607B6800221A607B6800221A718C
:1032AC007B6800225A717B6800229A607B6800223E
:1032BC00DA607B6801221A7400BF0C37BD4680BCF3
:1032CC00704780B483B000AF78600B46FB70FB781E
:1032DC00002B06D07B689B6843F001027B689A60E8
:1032EC0005E07B689B6823F001027B689A6000BF55
:1032FC000C37BD4680BC704780B483B000AF78609B
:10330C000B46FB70FB78002B06D07B689B6843F464
:10331C0080727B689A6005E07B689B6823F48072FE
:10332C007B689A6000BF0C37BD4680BC704780B488
:10333C0085B000AF78600B467B8013467B70002312
:10334C00FB737B88FB737B78002B06D07B685A68F9
:10335C00FB7B1A437B685A6006E07B685A68FB7BF0
:10336C00DB431A407B685A6000BF1437BD4680BCF3
:10337C00704780B483B000AF78607B689B6843F083
:10338C0008027B689A6000BF0C37BD4680BC704752
:10339C0080B485B000AF78600023FB737B689B68BA
:1033AC0003F00803002B02D00123FB7301E0002380
:1033BC00FB73FB7B18461437BD4680BC704780B44A
:1033CC0083B000AF78607B689B6843F004027B6835
:1033DC009A6000BF0C37BD4680BC704780B485B086
:1033EC0000AF78600023FB737B689B6803F00403D9
:1033FC00002B02D00123FB7301E00023FB73FB7B4A
:10340C0018461437BD4680BC704780B483B000AFFB
:10341C0078600B46FB70FB78002B06D07B689B68B2
:10342C0043F4A0027B689A6005E07B689B6823F4F8
:10343C00A0027B689A6000BF0C37BD4680BC704709
:10344C0080B485B000AF78600023FB737B689B6809
:10345C0003F48003002B02D00123FB7301E0002353
:10346C00FB73FB7B18461437BD4680BC704780B499
:10347C0085B000AF78600B46FB700023FB60002327
:10348C00BB607B685B68FB60FB6823F46043FB609C
:10349C00FB78013BBB60BB685B03FA681343FB60C2
:1034AC007B68FA685A6000BF1437BD4680BC704711
:1034BC0080B483B000AF78600B46FB70FB78002BB8
:1034CC0006D07B685B6843F400627B685A6005E059
:1034DC007B685B6823F400627B685A6000BF0C3722
:1034EC00BD4680BC704780B485B000AF786008469C
:1034FC0011461A460346FB700B46BB7013467B7095
:10350C000023FB600023BB60FB78092B23D97B686D
:10351C00DB68FB60FB78A3F10A0213465B001344E3
:10352C00072202FA03F3BB60BB68DB43FA68134063
:10353C00FB607978FB78A3F10A0213465B00134415
:10354C0001FA03F3BB60FA68BB681343FB607B684A
:10355C00FA68DA601EE07B681B69FB60FA78134638
:10356C005B001344072202FA03F3BB60BB68DB4326
:10357C00FA681340FB607978FA7813465B001344C1
:10358C0001FA03F3BB60FA68BB681343FB607B680A
:10359C00FA681A61BB78062B21D87B685B6BFB60E1
:1035AC00BB785A1E13469B0013441F2202FA03F3E6
:1035BC00BB60BB68DB43FA681340FB60F978BB78EF
:1035CC005A1E13469B00134401FA03F3BB60FA68BE
:1035DC00BB681343FB607B68FA685A6347E0BB78AF
:1035EC000C2B21D87B681B6BFB60BB78DA1F134656
:1035FC009B0013441F2202FA03F3BB60BB68DB433E
:10360C00FA681340FB60F978BB78DA1F13469B000D
:10361C00134401FA03F3BB60FA68BB681343FB6005
:10362C007B68FA681A6322E07B68DB6AFB60BB7814
:10363C00A3F10D0213469B0013441F2202FA03F35D
:10364C00BB60BB68DB43FA681340FB60F978BB785E
:10365C00A3F10D0213469B00134401FA03F3BB6064
:10366C00FA68BB681343FB607B68FA68DA6200BFD8
:10367C001437BD4680BC704780B483B000AF78600F
:10368C000B46FB70FB78002B06D07B689B6843F4E1
:10369C0080127B689A6005E07B689B6823F480123B
:1036AC007B689A6000BF0C37BD4680BC704780B405
:1036BC0083B000AF78607B68DB6C9BB218460C372C
:1036CC00BD4680BC704780B400AF034B1B681846E6
:1036DC00BD4680BC704700BF4C24014080B483B011
:1036EC0000AF78600B46FB70FB78002B06D07B6834
:1036FC005B6843F480627B685A6005E07B685B68BA
:10370C0023F480627B685A6000BF0C37BD4680BCD6
:10371C00704780B483B000AF78600B46FB70FB78C9
:10372C00002B06D07B685B6843F480527B685A6040
:10373C0005E07B685B6823F480527B685A6000BFAD
:10374C000C37BD4680BC704780B485B000AF786044
:10375C0039600023FB607B689B68FB60FB6823F48B
:10376C00E043FB60FA683B681343FB607B68FA68D4
:10377C009A6000BF1437BD4680BC704780B483B0DC
:10378C0000AF78600B46FB70FB78002B06D07B6893
:10379C009B6843F400427B689A6005E07B689B68F9
:1037AC0023F400427B689A6000BF0C37BD4680BC96
:1037BC00704780B483B000AF78600B46FB70FB7829
:1037CC00002B06D07B689B6843F402127B689A60DE
:1037DC0005E07B689B6823F402127B689A6000BF4B
:1037EC000C37BD4680BC704780B485B000AF7860A4
:1037FC000023FB737B689B6803F40013002B02D03F
:10380C000123FB7301E00023FB73FB7B1846143789
:10381C00BD4680BC704780B487B000AF7860084666
:10382C0011461A460346FB700B46BB7013467B7061
:10383C0000237B6100233B610023FB60FB78092B99
:10384C0023D97B68DB687B61FB78A3F10A02134602
:10385C005B001344072202FA03F33B613B69DB4331
:10386C007A6913407B617978FB78A3F10A021346DD
:10387C005B00134401FA03F33B617A693B69134320
:10388C007B617B687A69DA601EE07B681B697B610F
:10389C00FA7813465B001344072202FA03F33B61E8
:1038AC003B69DB437A6913407B617978FA7813467C
:1038BC005B00134401FA03F33B617A693B691343E0
:1038CC007B617B687A691A617B689B6B7B617B6926
:1038DC001B0D03F00303FB60FB68DBB2BA78D31A51
:1038EC00DBB20233DBB21A4613469B0013441F2291
:1038FC0002FA03F33B613B69DB437A6913407B615A
:10390C00FA78FB68DBB2B978CB1ADBB20233DBB2E4
:10391C0019460B469B000B4402FA03F33B617A6990
:10392C003B6913437B617B687A699A6300BF1C37E0
:10393C00BD4680BC704780B485B000AF78600B4644
:10394C00FB700023FB600023BB607B689B6BFB6000
:10395C00FB6823F44013FB60FB78013BBB60BB6846
:10396C001B05FA681343FB607B68FA689A6300BF17
:10397C001437BD4680BC704780B485B000AF78600A
:10398C000B46FB7013463B800023FB607B68FB609F
:10399C00FA78FB681344FB60FB681A463B8813609B
:1039AC0000BF1437BD4680BC704780B485B000AFF3
:1039BC0078600B46FB700023FB607B68FB60FA7839
:1039CC00FB6813442833FB60FB681B689BB21846EA
:1039DC001437BD4680BC704780B485B000AF7860AA
:1039EC0039600023FB607B685B68FB60FB6823F439
:1039FC00400323F40073FB60FA683B681343FB60DD
:103A0C007B68FA685A6000BF1437BD4680BC7047AB
:103A1C0080B483B000AF78600B467B8013463B804C
:103A2C007A887B685A623A887B689A6200BF0C3746
:103A3C00BD4680BC704780B485B000AF78600B4643
:103A4C00FB700023FB607B685B68FB60FB6823F00A
:103A5C001F03FB60FB78FA681343FB607B68FA6812
:103A6C005A6000BF1437BD4680BC704780B483B029
:103A7C0000AF0346FB71FB79002B06D0084B9B680B
:103A8C00074A43F40003936005E0054B9B68044A26
:103A9C0023F40003936000BF0C37BD4680BC704715
:103AAC000024014080B485B000AF78600B46FB70F9
:103ABC000023FB737B681A68FB781340002B02D041
:103ACC000123FB7301E00023FB73FB7B18461437C7
:103ADC00BD4680BC704780B483B000AF78600B46A5
:103AEC00FB70FB78DA437B681A6000BF0C37BD466D
:103AFC0080BC704780B487B000AF78600B467B8089
:103B0C000023FB7500233B610023FB607B881B0AB1
:103B1C009BB23B617B685B687A88D2B21340FB60D6
:103B2C007B681A683B691340002B05D0FB68002B9F
:103B3C0002D00123FB7501E00023FB75FB7D1846C9
:103B4C001C37BD4680BC704780B485B000AF786030
:103B5C000B467B800023FB737B881B0A9BB2FB7399
:103B6C00FB7BDA437B681A6000BF1437BD4680BC10
:103B7C00704700BF80B582B000AF78607B68784A30
:103B8C0093420AD101214FF4006002F093FA002114
:103B9C004FF4006002F08EFADEE07B68B3F1804FE8
:103BAC0008D10121012002F0A3FA0021012002F02A
:103BBC009FFAD1E07B686B4A934208D10121022025
:103BCC0002F096FA0021022002F092FAC4E07B681F
:103BDC00654A934208D10121042002F089FA0021A0
:103BEC00042002F085FAB7E07B68604A934208D162
:103BFC000121082002F07CFA0021082002F078FA5A
:103C0C00AAE07B685A4A934208D10121102002F0A5
:103C1C006FFA0021102002F06BFA9DE07B68554A88
:103C2C00934208D10121202002F062FA00212020C9
:103C3C0002F05EFA90E07B684F4A93420AD1012170
:103C4C004FF4005002F036FA00214FF4005002F00D
:103C5C0031FA81E07B68494A93420AD101214FF441
:103C6C00002002F027FA00214FF4002002F022FA83
:103C7C0072E07B68424A93420AD101214FF48010D2
:103C8C0002F018FA00214FF4801002F013FA63E0EE
:103C9C007B683C4A93420AD101214FF4001002F098
:103CAC0009FA00214FF4001002F004FA54E07B688A
:103CBC00354A934208D10121402002F019FA002123
:103CCC00402002F015FA47E07B68304A934208D155
:103CDC000121802002F00CFA0021802002F008FA69
:103CEC003AE07B682A4A93420AD101214FF4807052
:103CFC0002F0FEF900214FF4807002F0F9F92BE08C
:103D0C007B68244A93420AD101214FF4803002F09F
:103D1C00D1F900214FF4803002F0CCF91CE07B6823
:103D2C001D4A93420AD101214FF4003002F0C2F92E
:103D3C0000214FF4003002F0BDF90DE07B68174A0A
:103D4C00934209D101214FF4802002F0B3F90021F4
:103D5C004FF4802002F0AEF900BF0837BD4680BD9D
:103D6C00002C01400004004000080040000C004002
:103D7C00001000400014004000340140004C014091
:103D8C00005001400054014000180040001C00404D
:103D9C000020004000400140004401400048014028
:103DAC0080B485B000AF786039600023FB817B68FC
:103DBC001B88FB817B682E4A934213D07B682D4A6B
:103DCC0093420FD07B68B3F1804F0BD07B682A4AAB
:103DDC00934207D07B68294A934203D07B68284AD8
:103DEC00934208D1FB8923F07003FB813B685A880E
:103DFC00FB891343FB817B68224A93420CD07B687E
:103E0C00214A934208D0FB8923F44073FB813B6821
:103E1C00DA88FB891343FB817B68FA891A803B683B
:103E2C009A887B689A853B681A887B681A857B68B8
:103E3C000F4A93420FD07B680E4A93420BD07B689B
:103E4C00124A934207D07B68114A934203D07B6895
:103E5C00104A934204D13B681B7A1A467B681A8637
:103E6C007B6801229A8200BF1437BD4680BC704724
:103E7C00002C0140003401400004004000080040C8
:103E8C00000C0040001000400014004000400140B5
:103E9C00004401400048014080B485B000AF786018
:103EAC00396000237B810023FB810023BB817B686D
:103EBC001B8C9BB223F001039AB27B681A847B683B
:103ECC001B8CFB817B689B88BB817B681B8B7B81FC
:103EDC007B8923F070037B817B8923F003037B8137
:103EEC003B681A887B8913437B81FB8923F002038F
:103EFC00FB813B681A89FB891343FB813B685A8819
:103F0C00FB891343FB817B68244A93420FD07B6867
:103F1C00234A93420BD07B68224A934207D07B689A
:103F2C00214A934203D07B68204A934223D1FB89D8
:103F3C0023F00803FB813B685A89FB891343FB81FF
:103F4C00FB8923F00403FB813B689A88FB891343AC
:103F5C00FB81BB8923F48073BB81BB8923F4007381
:103F6C00BB813B689A89BB891343BB813B68DA8967
:103F7C00BB891343BB817B68BA899A807B687A8939
:103F8C001A833B68DA887B689A867B68FA891A847C
:103F9C0000BF1437BD4680BC704700BF002C0140E9
:103FAC000034014000400140004401400048014001
:103FBC0080B485B000AF7860396000237B8100232A
:103FCC00FB810023BB817B681B8C9BB223F010030D
:103FDC009AB27B681A847B681B8CFB817B689B88FC
:103FEC00BB817B681B8B7B817B8923F4E0437B81CA
:103FFC007B8923F440737B813B681B881B029AB23C
:10400C007B8913437B81FB8923F02003FB813B6875
:10401C001B891B019AB2FB891343FB813B685B88AC
:10402C001B019AB2FB891343FB817B68224A9342A2
:10403C0003D07B68214A93422BD1FB8923F0800368
:10404C00FB813B685B891B019AB2FB891343FB81A3
:10405C00FB8923F04003FB813B689B881B019AB2D0
:10406C00FB891343FB81BB8923F48063BB81BB8930
:10407C0023F40063BB813B689B899B009AB2BB898C
:10408C001343BB813B68DB899B009AB2BB8913430A
:10409C00BB817B68BA899A807B687A891A833B6872
:1040AC00DA887B681A877B68FA891A8400BF143710
:1040BC00BD4680BC704700BF002C0140003401405D
:1040CC0080B485B000AF7860396000237B81002319
:1040DC00FB810023BB817B681B8C9BB223F4807318
:1040EC009AB27B681A847B681B8CFB817B689B88EB
:1040FC00BB817B689B8B7B817B8923F070037B81ED
:10410C007B8923F003037B813B681A887B891343EB
:10411C007B81FB8923F40073FB813B681B891B02A9
:10412C009AB2FB891343FB813B685B881B029AB2F2
:10413C00FB891343FB817B68224A934203D07B6843
:10414C00214A93422BD1FB8923F40063FB813B680A
:10415C005B891B029AB2FB891343FB81FB8923F415
:10416C008063FB813B689B881B029AB2FB891343DB
:10417C00FB81BB8923F48053BB81BB8923F400539F
:10418C00BB813B689B891B019AB2BB891343BB81E2
:10419C003B68DB891B019AB2BB891343BB817B68EB
:1041AC00BA899A807B687A899A833B68DA887B68BB
:1041BC009A877B68FA891A8400BF1437BD4680BC85
:1041CC00704700BF002C01400034014080B485B022
:1041DC0000AF786039600023BB8100237B81002312
:1041EC00FB817B681B8C9BB223F480539AB27B6857
:1041FC001A847B681B8C7B817B689B88FB817B682A
:10420C009B8BBB81BB8923F4E043BB81BB8923F42B
:10421C004073BB813B681B881B029AB2BB8913435A
:10422C00BB817B8923F400537B813B681B891B0377
:10423C009AB27B8913437B813B685B881B039AB2E0
:10424C007B8913437B817B68124A934203D07B6842
:10425C00114A93420AD1FB8923F48043FB813B68CA
:10426C009B899B019AB2FB891343FB817B68FA897A
:10427C009A807B68BA899A833B68DA887B68A3F852
:10428C0040207B687A891A8400BF1437BD4680BCF5
:10429C00704700BF002C01400034014080B582B053
:1042AC0000AF786039603B681B88002B0FD13B68EE
:1042BC0059883B689A883B681B89786801F047F9F4
:1042CC003B68DB881946786801F009F836E03B68F2
:1042DC001B88042B0FD13B6859883B689A883B6834
:1042EC001B89786801F0A4F93B68DB88194678686B
:1042FC0001F010F822E03B681B88082B0FD13B68BB
:10430C0059883B689A883B681B89786801F00AFADF
:10431C003B68DB881946786801F019F80EE03B68B9
:10432C0059883B689A883B681B89786801F070FA59
:10433C003B68DB881946786801F024F800BF083721
:10434C00BD4680BD80B584B000AF78603960002375
:10435C00FB810123BB813B685B88002B02D10223CC
:10436C00FB8101E00023FB813B689B88012B02D180
:10437C000223BB8101E00123BB813B681B88002B1E
:10438C001CD13B6859883B689A883B681B897868C4
:10439C0001F0DDF83B68DB881946786800F09FFF78
:1043AC003B681B89BA89F989786801F041F93B6847
:1043BC00DB881946786800F0ADFF1BE03B68598834
:1043CC003B689A883B681B89786801F031F93B6837
:1043DC00DB881946786800F09DFF3B681B89BA8919
:1043EC00F989786801F0B3F83B68DB88194678687E
:1043FC0000F075FF00BF1037BD4680BD80B483B0A0
:10440C0000AF786039603B681A883B685B8813435F
:10441C009AB23B689B8813439AB23B68DB88134380
:10442C009AB23B681B8913439AB23B685B8913436E
:10443C009AB23B689B8913439AB27B68A3F84420D9
:10444C0000BF0C37BD4680BC704780B483B000AF52
:10445C0078607B684FF6FF729A807B6800221A8026
:10446C007B680022DA807B6800225A807B680022FD
:10447C001A7200BF0C37BD4680BC704780B483B045
:10448C0000AF78607B6800221A807B6800225A801B
:10449C007B6800229A807B680022DA807B6800228D
:1044AC001A817B6800225A817B6800229A817B6882
:1044BC000022DA8100BF0C37BD4680BC704780B447
:1044CC0083B000AF78607B6800221A807B68002282
:1044DC005A807B6801229A807B680022DA807B6894
:1044EC0000221A8100BF0C37BD4680BC704780B4D7
:1044FC0083B000AF78607B6800221A807B68002252
:10450C005A807B6800229A807B680022DA807B6864
:10451C0000221A817B6800225A817B6800229A81D2
:10452C0000BF0C37BD4680BC704780B483B000AF71
:10453C0078600B46FB70FB78002B08D07B681B88DF
:10454C009BB243F001039AB27B681A8007E07B6848
:10455C001B889BB223F001039AB27B681A8000BFC0
:10456C000C37BD4680BC704780B483B000AF786018
:10457C000B46FB70FB78002B0CD07B68B3F84430F7
:10458C009BB26FEA43436FEA53439AB27B68A3F83A
:10459C00442009E07B68B3F844309BB2C3F30E03AC
:1045AC009AB27B68A3F8442000BF0C37BD4680BC90
:1045BC00704780B483B000AF78600B467B801346A5
:1045CC007B707B78002B08D07B689B899AB27B88A8
:1045DC0013439AB27B689A8109E07B689B899AB2F3
:1045EC007B88DB439BB213409AB27B689A8100BFF5
:1045FC000C37BD4680BC704780B483B000AF786088
:10460C000B467B807B687A889A8200BF0C37BD464C
:10461C0080BC704780B483B000AF78600B467B8061
:10462C0013463B807A883B8813439AB27B68A3F885
:10463C00482000BF0C37BD4680BC704780B483B0A7
:10464C0000AF78600B467B8013467B707B78002B29
:10465C0008D07B689B899AB27B8813439AB27B689B
:10466C009A8109E07B689B899AB27B88DB439BB279
:10467C0013409AB27B689A8100BF0C37BD4680BC50
:10468C00704780B483B000AF78607B681B899BB2A5
:10469C0023F007039AB27B681A8100BF0C37BD4622
:1046AC0080BC704780B582B000AF78600B467B80D1
:1046BC007B881946786800F0DFF87B681B899BB211
:1046CC0043F007039AB27B681A8100BF0837BD46D6
:1046DC0080BD80B584B000AFF860084611461A461C
:1046EC0003467B810B463B811346FB807B89602B09
:1046FC0006D1FB8839890122F86800F099FF05E0A2
:10470C00FB8839890122F86800F021FF7B89194662
:10471C00F86800F0B1F8FB681B899BB243F0070303
:10472C009AB2FB681A8100BF1037BD4680BD80B5B8
:10473C0086B000AFF860084611461A4603467B81E6
:10474C000B463B811346FB800023FB82FB883A8996
:10475C007989F86800F039F8FB681B89FB82FB8AC1
:10476C0023F00703FB82FB8A43F00703FB82FB8ADF
:10477C0023F07003FB82FB8A43F07003FB82FB681F
:10478C00FA8A1A8100BF1837BD4680BD80B584B047
:10479C0000AFF860084611461A4603467B810B466B
:1047AC003B811346FB80FB883A897989F86800F0D5
:1047BC000CF8FB681B899BB243F480439AB2FB68EC
:1047CC001A8100BF1037BD4680BD80B487B000AFE2
:1047DC00F860084611461A4603467B810B463B811E
:1047EC001346FB800023FB82FB681B89FB82FB8A40
:1047FC00DBB2FB82FB881B029AB23B8913439AB251
:10480C007B8913439AB2FB8A1343FB82FB68FA8AB7
:10481C001A8100BF1C37BD4680BC704780B483B082
:10482C0000AF78600B467B8013463B807B687A88B0
:10483C001A857B683A889A8200BF0C37BD4680BCCB
:10484C00704780B485B000AF78600B467B80002346
:10485C00FB817B681B88FB81FB8923F07003FB8148
:10486C00FA897B881343FB817B68FA891A8000BF25
:10487C001437BD4680BC704780B485B000AF7860FB
:10488C000B467B800023FB817B681B89FB81FB89AA
:10489C0023F07003FB81FA897B881343FB817B68CF
:1048AC00FA891A8100BF1437BD4680BC704780B4AA
:1048BC0087B000AFF860084611461A4603467B8164
:1048CC000B463B811346FB800023FB820023BB82FB
:1048DC0000237B82FB681B89FB82FB681B8BBB82E2
:1048EC00FB681B8C7B82FB8A23F00703FB82FA8A12
:1048FC007B891343FB82BB8A23F4407323F00303AD
:10490C00BB82BB8A43F4807343F00103BB827B8A76
:10491C0023F022037B82FB881B019AB23B89134351
:10492C009AB27B8A13437B82FB68FA8A1A81FB68F2
:10493C00BA8A1A83FB687A8A1A8400BF1C37BD4670
:10494C0080BC704780B485B000AF78600B467B802C
:10495C000023FB817B681B8BFB81FB8923F070039D
:10496C00FB81FA897B881343FB817B68FA891A8364
:10497C0000BF1437BD4680BC704780B485B000AF13
:10498C0078600B467B800023FB817B681B8BFB8153
:10499C00FB8923F4E043FB817B881B029AB2FB89E1
:1049AC001343FB817B68FA891A8300BF1437BD4619
:1049BC0080BC704780B485B000AF78600B467B80BC
:1049CC000023FB817B689B8BFB81FB8923F07003AD
:1049DC00FB81FA897B881343FB817B68FA899A8374
:1049EC0000BF1437BD4680BC704780B485B000AFA3
:1049FC0078600B467B800023FB817B689B8BFB8163
:104A0C00FB8923F4E043FB817B881B029AB2FB8970
:104A1C001343FB817B68FA899A8300BF1437BD4628
:104A2C0080BC704780B483B000AF78600B46FB70DD
:104A3C00FB78002B08D07B681B889BB243F080036B
:104A4C009AB27B681A8007E07B681B889BB223F0C4
:104A5C0080039AB27B681A8000BF0C37BD4680BCBD
:104A6C00704780B483B000AF78600B46FB70FB7866
:104A7C00002B08D07B689B889BB243F004039AB24E
:104A8C007B689A8007E07B689B889BB223F00403C9
:104A9C009AB27B689A8000BF0C37BD4680BC7047C9
:104AAC0080B483B000AF78600B46FB70FB78002BB2
:104ABC0008D07B689B889BB243F008039AB27B6852
:104ACC009A8007E07B689B889BB223F008039AB21C
:104ADC007B689A8000BF0C37BD4680BC704780B4A1
:104AEC0083B000AF78600B46FB70FB78002B08D0CE
:104AFC007B689B889BB243F001039AB27B689A80D7
:104B0C0007E07B689B889BB223F001039AB27B6819
:104B1C009A8000BF0C37BD4680BC704780B485B00E
:104B2C0000AF78600B467B800023FB817B681B8B7E
:104B3C00FB81FB8923F00803FB81FA897B881343F3
:104B4C00FB817B68FA891A8300BF1437BD4680BC91
:104B5C00704780B485B000AF78600B467B80002333
:104B6C00FB817B681B8BFB81FB8923F40063FB813E
:104B7C007B881B029AB2FB891343FB817B68FA8901
:104B8C001A8300BF1437BD4680BC704780B485B013
:104B9C0000AF78600B467B800023FB817B689B8B8E
:104BAC00FB81FB8923F00803FB81FA897B88134383
:104BBC00FB817B68FA899A8300BF1437BD4680BCA1
:104BCC00704780B485B000AF78600B467B800023C3
:104BDC00FB817B689B8BFB81FB8923F40063FB814E
:104BEC007B881B029AB2FB891343FB817B68FA8991
:104BFC009A8300BF1437BD4680BC704780B485B023
:104C0C0000AF78600B467B800023FB817B681B8B9D
:104C1C00FB81FB8923F00403FB81FA897B88134316
:104C2C00FB817B68FA891A8300BF1437BD4680BCB0
:104C3C00704780B485B000AF78600B467B80002352
:104C4C00FB817B681B8BFB81FB8923F48063FB81DD
:104C5C007B881B029AB2FB891343FB817B68FA8920
:104C6C001A8300BF1437BD4680BC704780B485B032
:104C7C0000AF78600B467B800023FB817B689B8BAD
:104C8C00FB81FB8923F00403FB81FA897B881343A6
:104C9C00FB817B68FA899A8300BF1437BD4680BCC0
:104CAC00704780B485B000AF78600B467B800023E2
:104CBC00FB817B689B8BFB81FB8923F48063FB81ED
:104CCC007B881B029AB2FB891343FB817B68FA89B0
:104CDC009A8300BF1437BD4680BC704780B485B042
:104CEC0000AF78600B467B800023FB817B681B8BBD
:104CFC00FB81FB8923F08003FB81FA897B881343BA
:104D0C00FB817B68FA891A8300BF1437BD4680BCCF
:104D1C00704780B485B000AF78600B467B80002371
:104D2C00FB817B681B8BFB81FB89C3F30E03FB812F
:104D3C007B881B029AB2FB891343FB817B68FA893F
:104D4C001A8300BF1437BD4680BC704780B485B051
:104D5C0000AF78600B467B800023FB817B689B8BCC
:104D6C00FB81FB8923F08003FB81FA897B88134349
:104D7C00FB817B68FA899A8300BF1437BD4680BCDF
:104D8C00704780B485B000AF78600B467B80002301
:104D9C00FB817B689B8BFB81FB89C3F30E03FB813F
:104DAC007B881B029AB2FB891343FB817B68FA89CF
:104DBC009A8300BF1437BD4680BC704780B485B061
:104DCC0000AF78600B467B800023FB817B681B8CDB
:104DDC00FB81FB8923F00203FB81FA897B88134357
:104DEC00FB817B68FA891A8400BF1437BD4680BCEE
:104DFC00704780B485B000AF78600B467B80002391
:104E0C00FB817B681B8CFB81FB8923F00803FB81F6
:104E1C00FA897B881343FB817B68FA891A8400BF6B
:104E2C001437BD4680BC704780B485B000AF786045
:104E3C000B467B800023FB817B681B8CFB81FB89F1
:104E4C0023F02003FB817B881B019AB2FB8913435F
:104E5C00FB817B68FA891A8400BF1437BD4680BC7D
:104E6C00704780B485B000AF78600B467B80002320
:104E7C00FB817B681B8CFB81FB8923F08003FB810E
:104E8C007B881B019AB2FB891343FB817B68FA89EF
:104E9C001A8400BF1437BD4680BC704780B485B0FF
:104EAC0000AF78600B467B800023FB817B681B8CFA
:104EBC00FB81FB8923F40073FB817B881B029AB274
:104ECC00FB891343FB817B68FA891A8400BF143772
:104EDC00BD4680BC704780B485B000AF78600B468F
:104EEC007B800023FB817B681B8CFB81FB8923F47B
:104EFC000063FB817B881B029AB2FB891343FB8105
:104F0C007B68FA891A8400BF1437BD4680BC704791
:104F1C0080B485B000AF78600B467B800023FB81AA
:104F2C007B681B8CFB81FB8923F40053FB817B8802
:104F3C001B039AB2FB891343FB817B68FA891A84A1
:104F4C0000BF1437BD4680BC704780B485B000AF3D
:104F5C0078600B467B8013463B800023FB817B886B
:104F6C00012202FA03F3FB817B681B8C9AB2FB894A
:104F7C00DB439BB213409AB27B681A847B681B8C10
:104F8C009AB239887B8801FA03F39BB213439AB225
:104F9C007B681A8400BF1437BD4680BC704780B450
:104FAC0085B000AF78600B467B8013463B800023B6
:104FBC00FB817B88042202FA03F3FB817B681B8C48
:104FCC009AB2FB89DB439BB213409AB27B681A847A
:104FDC007B681B8C9AB239887B8801FA03F39BB2ED
:104FEC0013439AB27B681A8400BF1437BD4680BC49
:104FFC00704780B485B000AF78600B467B80134659
:10500C003B800023FB6000237B817B68FB60FB689B
:10501C001833FB607B88012202FA03F37B817B68E7
:10502C001B8C9AB27B89DB439BB213409AB27B6890
:10503C001A847B88002B02D07B88082B13D17B88A9
:10504C005B089BB21A46FB681344FB60FB681A684A
:10505C00FB6822F070021A60FB6819683A88FB68DA
:10506C000A431A6018E07B88043B9BB25B089BB236
:10507C001A46FB681344FB60FB681A68FB6822F451
:10508C00E0421A60FB681A683B881B029BB2194607
:10509C00FB680A431A6000BF00BF1437BD4680BCD2
:1050AC00704780B483B000AF78600B46FB70FB7820
:1050BC00002B08D07B681B889BB243F002039AB28A
:1050CC007B681A8007E07B681B889BB223F0020385
:1050DC009AB27B681A8000BF0C37BD4680BC704703
:1050EC0080B483B000AF78600B467B807B88002B4C
:1050FC0008D07B681B889BB243F004039AB27B6890
:10510C001A8007E07B681B889BB223F004039AB2D9
:10511C007B681A8000BF0C37BD4680BC704780B4DA
:10512C0083B000AF78600B46FB70FB78002B08D087
:10513C007B689B889BB243F080039AB27B689A8011
:10514C0007E07B689B889BB223F080039AB27B6854
:10515C009A8000BF0C37BD4680BC704780B483B0CA
:10516C0000AF78600B467B807B681B889BB223F07A
:10517C0008039AB27B681A807B681B889AB27B887A
:10518C0013439AB27B681A8000BF0C37BD4680BCB3
:10519C00704780B483B000AF78600B467B807B682F
:1051AC009B889BB223F070039AB27B689A807B68D1
:1051BC009B889AB27B8813439AB27B689A8000BF13
:1051CC000C37BD4680BC704780B483B000AF7860AC
:1051DC000B467B807B681B899BB223F007039AB23A
:1051EC007B681A817B681B899AB27B8813439AB2BD
:1051FC007B681A8100BF0C37BD4680BC704780B4F9
:10520C0083B000AF78600B467B807B681B899BB2B8
:10521C0023F080039AB27B681A817B681B899AB24F
:10522C007B8813439AB27B681A8100BF0C37BD464A
:10523C0080BC704780B483B000AF78600B467B8035
:10524C007B687A889A8400BF0C37BD4680BC704757
:10525C0080B483B000AF78600B467B807B687A8823
:10526C009A8500BF0C37BD4680BC704780B483B0B4
:10527C0000AF78600B467B807B687A889A8600BF8B
:10528C000C37BD4680BC704780B483B000AF7860EB
:10529C000B467B807B687A881A8700BF0C37BD462B
:1052AC0080BC704780B483B000AF78600B467B80C5
:1052BC007B687A889A8700BF0C37BD4680BC7047E4
:1052CC0080B483B000AF78600B467B807B687A88B3
:1052DC00A3F8402000BF0C37BD4680BC704780B49B
:1052EC0083B000AF78600B467B807B681B8B9BB2D6
:1052FC0023F00C039AB27B681A837B681B8B9AB2DF
:10530C007B8813439AB27B681A8300BF0C37BD4667
:10531C0080BC704780B483B000AF78600B467B8054
:10532C007B681B8B9BB223F440639AB27B681A8315
:10533C007B681B8B9AB27B881B029BB213439AB27D
:10534C007B681A8300BF0C37BD4680BC704780B4A5
:10535C0083B000AF78600B467B807B689B8B9BB2E5
:10536C0023F00C039AB27B689A837B689B8B9AB26E
:10537C007B8813439AB27B689A8300BF0C37BD4677
:10538C0080BC704780B483B000AF78600B467B80E4
:10539C007B689B8B9BB223F440639AB27B689A83A5
:1053AC007B689B8B9AB27B881B029BB213439AB28D
:1053BC007B689A8300BF0C37BD4680BC704780B4B5
:1053CC0083B000AF78600B467B807B681B889BB2F8
:1053DC0023F440739AB27B681A807B681B889AB25C
:1053EC007B8813439AB27B681A8000BF0C37BD468A
:1053FC0080BC704780B483B000AF78607B689B8EB4
:10540C009BB218460C37BD4680BC704780B483B045
:10541C0000AF78607B681B8F9BB218460C37BD467B
:10542C0080BC704780B483B000AF78607B689B8F82
:10543C009BB218460C37BD4680BC704780B483B015
:10544C0000AF78607B68B3F840309BB218460C37DD
:10545C00BD4680BC704780B483B000AF78607B6879
:10546C009B8C9BB218460C37BD4680BC704780B4F1
:10547C0083B000AF78607B681B8D9BB218460C37ED
:10548C00BD4680BC704780B485B000AF78600B46D9
:10549C007B800023FB737B681B8A9AB27B8813404A
:1054AC009BB2002B02D00123FB7301E00023FB73A2
:1054BC00FB7B18461437BD4680BC704780B483B064
:1054CC0000AF78600B467B807B88DB439AB27B68AD
:1054DC001A8200BF0C37BD4680BC704780B485B0C3
:1054EC0000AF78600B467B800023FB730023BB81ED
:1054FC0000237B817B681B8A9AB27B881340BB811B
:10550C007B689B899AB27B8813407B81BB89002B7B
:10551C0005D07B89002B02D00123FB7301E0002313
:10552C00FB73FB7B18461437BD4680BC704780B4B8
:10553C0083B000AF78600B467B807B88DB439AB2EC
:10554C007B681A8200BF0C37BD4680BC704780B4A4
:10555C0087B000AFF860084611461A4603467B81B7
:10556C000B463B811346FB800023BB820023FB824E
:10557C00FB681B8C9BB223F001039AB2FB681A8464
:10558C00FB681B8BBB82FB681B8CFB82BB8A23F0EA
:10559C00F303BB82FB881B019AB23B8913439AB27B
:1055AC00BB8A1343BB82FB681C4A934213D0FB6833
:1055BC001B4A93420FD0FB68B3F1804F0BD0FB68B2
:1055CC00184A934207D0FB68174A934203D0FB68F2
:1055DC00164A93420BD1FB8A23F00203FB827A8991
:1055EC00FB8A13439BB243F00103FB820AE0FB8A64
:1055FC0023F00A03FB827A89FB8A13439BB243F0A4
:10560C000103FB82FB68BA8A1A83FB68FA8A1A8444
:10561C0000BF1C37BD4680BC704700BF002C01404A
:10562C00003401400004004000080040000C004021
:10563C0080B487B000AFF860084611461A4603469E
:10564C007B810B463B811346FB800023BB820023EE
:10565C00FB8200237B82FB681B8C9BB223F0100324
:10566C009AB2FB681A84FB681B8BBB82FB681B8C91
:10567C00FB827B891B017B82BB8A23F440731B0555
:10568C001B0DBB82FB881B039AB2BB8A1343BB82E4
:10569C003B891B029AB2BB8A1343BB82FB681C4A30
:1056AC00934213D0FB681B4A93420FD0FB68B3F1B3
:1056BC00804F0BD0FB68184A934207D0FB68174AFF
:1056CC00934203D0FB68164A93420BD1FB8A23F01A
:1056DC002003FB827A8AFB8A13439BB243F01003AC
:1056EC00FB820AE0FB8A23F0A003FB827A89FB8A07
:1056FC0013439BB243F01003FB82FB68BA8A1A83F4
:10570C00FB68FA8A1A8400BF1C37BD4680BC704700
:10571C00002C01400034014000040040000800400F
:10572C00000C004080B487B000AFF860084611460A
:10573C001A4603467B810B463B811346FB800023B4
:10574C00BB820023FB8200237B82FB681B8C9BB2F9
:10575C0023F480739AB2FB681A84FB689B8BBB8220
:10576C00FB681B8CFB827B891B027B82BB8A23F030
:10577C00F303BB82FB881B019AB23B8913439AB299
:10578C00BB8A1343BB82FB681C4A934213D0FB6851
:10579C001B4A93420FD0FB68B3F1804F0BD0FB68D0
:1057AC00184A934207D0FB68174A934203D0FB6810
:1057BC00164A93420BD1FB8A23F40073FB827A8A3C
:1057CC00FB8A13439BB243F48073FB820AE0FB8A8F
:1057DC0023F42063FB827A89FB8A13439BB243F444
:1057EC008073FB82FB68BA8A9A83FB68FA8A1A84F4
:1057FC0000BF1C37BD4680BC704700BF002C014069
:10580C00003401400004004000080040000C00403F
:10581C0080B487B000AFF860084611461A460346BC
:10582C007B810B463B811346FB800023BB8200230C
:10583C00FB8200237B82FB681B8C9BB223F480537E
:10584C009AB2FB681A84FB689B8BBB82FB681B8C2F
:10585C00FB827B891B037B82BB8A23F440731B0571
:10586C001B0DBB823B891B029AB2BB8A1343BB82C2
:10587C00FB881B039AB2BB8A1343BB82FB681D4A8D
:10588C00934213D0FB681C4A93420FD0FB68B3F1D0
:10589C00804F0BD0FB68194A934207D0FB68184A1B
:1058AC00934203D0FB68174A93420BD1FB8A23F433
:1058BC000053FB827A8AFB8A13439BB243F48053D6
:1058CC00FB820CE0FB8A23F400735B045B0CFB8211
:1058DC007A89FB8A13439BB243F48053FB82FB68A7
:1058EC00BA8A9A83FB68FA8A1A8400BF1C37BD46B1
:1058FC0080BC7047002C0140003401400004004083
:10590C0000080040000C004080B483B000AF786009
:10591C00054A7B6843F0BF6343F40033D36000BF98
:10592C000C37BD4680BC704700ED00E080B487B0FA
:10593C0000AF786000237B6100233B610F23FB6089
:10594C007B68DB78002B3AD0274BDB68DB431B0AE8
:10595C0003F007037B617B69C3F104033B61FA68C5
:10596C007B6922FA03F3FB607B685B781A463B6920
:10597C0002FA03F37B617B689B781A46FB68134041
:10598C007A6913437B617B691B017B61174A7B68D6
:10599C001B787969C9B213440A4683F800237B68E3
:1059AC001B7803F01F0311497A6812785209D2B29E
:1059BC001046012202FA03F341F820300FE07B6815
:1059CC001B7803F01F0309497A6812785209D2B286
:1059DC00104601229A4000F1200341F8232000BF19
:1059EC001C37BD4680BC704700ED00E000E100E0D4
:1059FC0080B483B000AF786039603B6823F06043BB
:105A0C0023F07F0304497A6813438B6000BF0C3783
:105A1C00BD4680BC704700BF00ED00E080B483B091
:105A2C0000AF03460A46FB711346BB71BB79002BD2
:105A3C0006D0094B1A69FB79074913430B6106E041
:105A4C00054B1A69FB79DB43034913400B6100BF1B
:105A5C000C37BD4680BC704700ED00E080B483B0CD
:105A6C0000AF78607B68042B06D1094B1B68084A91
:105A7C0043F00403136005E0054B1B68044A23F054
:105A8C000403136000BF0C37BD4680BC704700BFD9
:105A9C0010E000E080B400AF134B1B68124A43F0D7
:105AAC0001031360104B5A680F49104B13404B60A5
:105ABC000D4B1B680C4A23F0847323F48033136062
:105ACC00094B1B68084A23F480231360064B5B6860
